{
  "contractName": "BidLand",
  "abi": [
    {
      "constant": true,
      "inputs": [
        {
          "name": "_interfaceId",
          "type": "bytes4"
        }
      ],
      "name": "supportsInterface",
      "outputs": [
        {
          "name": "",
          "type": "bool"
        }
      ],
      "payable": false,
      "stateMutability": "view",
      "type": "function"
    },
    {
      "constant": true,
      "inputs": [],
      "name": "name",
      "outputs": [
        {
          "name": "",
          "type": "string"
        }
      ],
      "payable": false,
      "stateMutability": "view",
      "type": "function"
    },
    {
      "constant": true,
      "inputs": [
        {
          "name": "_tokenId",
          "type": "uint256"
        }
      ],
      "name": "getApproved",
      "outputs": [
        {
          "name": "",
          "type": "address"
        }
      ],
      "payable": false,
      "stateMutability": "view",
      "type": "function"
    },
    {
      "constant": false,
      "inputs": [
        {
          "name": "_to",
          "type": "address"
        },
        {
          "name": "_tokenId",
          "type": "uint256"
        }
      ],
      "name": "approve",
      "outputs": [],
      "payable": false,
      "stateMutability": "nonpayable",
      "type": "function"
    },
    {
      "constant": true,
      "inputs": [
        {
          "name": "_worldId",
          "type": "uint32"
        },
        {
          "name": "_x",
          "type": "int64"
        },
        {
          "name": "_y",
          "type": "int64"
        }
      ],
      "name": "exists",
      "outputs": [
        {
          "name": "",
          "type": "bool"
        }
      ],
      "payable": false,
      "stateMutability": "view",
      "type": "function"
    },
    {
      "constant": true,
      "inputs": [],
      "name": "totalSupply",
      "outputs": [
        {
          "name": "",
          "type": "uint256"
        }
      ],
      "payable": false,
      "stateMutability": "view",
      "type": "function"
    },
    {
      "constant": true,
      "inputs": [],
      "name": "InterfaceId_ERC165",
      "outputs": [
        {
          "name": "",
          "type": "bytes4"
        }
      ],
      "payable": false,
      "stateMutability": "view",
      "type": "function"
    },
    {
      "constant": false,
      "inputs": [
        {
          "name": "_from",
          "type": "address"
        },
        {
          "name": "_to",
          "type": "address"
        },
        {
          "name": "_tokenId",
          "type": "uint256"
        }
      ],
      "name": "transferFrom",
      "outputs": [],
      "payable": false,
      "stateMutability": "nonpayable",
      "type": "function"
    },
    {
      "constant": true,
      "inputs": [
        {
          "name": "_owner",
          "type": "address"
        },
        {
          "name": "_index",
          "type": "uint256"
        }
      ],
      "name": "tokenOfOwnerByIndex",
      "outputs": [
        {
          "name": "",
          "type": "uint256"
        }
      ],
      "payable": false,
      "stateMutability": "view",
      "type": "function"
    },
    {
      "constant": false,
      "inputs": [],
      "name": "unpause",
      "outputs": [],
      "payable": false,
      "stateMutability": "nonpayable",
      "type": "function"
    },
    {
      "constant": false,
      "inputs": [
        {
          "name": "_from",
          "type": "address"
        },
        {
          "name": "_to",
          "type": "address"
        },
        {
          "name": "_tokenId",
          "type": "uint256"
        }
      ],
      "name": "safeTransferFrom",
      "outputs": [],
      "payable": false,
      "stateMutability": "nonpayable",
      "type": "function"
    },
    {
      "constant": true,
      "inputs": [
        {
          "name": "_tokenId",
          "type": "uint256"
        }
      ],
      "name": "exists",
      "outputs": [
        {
          "name": "",
          "type": "bool"
        }
      ],
      "payable": false,
      "stateMutability": "view",
      "type": "function"
    },
    {
      "constant": true,
      "inputs": [
        {
          "name": "_index",
          "type": "uint256"
        }
      ],
      "name": "tokenByIndex",
      "outputs": [
        {
          "name": "",
          "type": "uint256"
        }
      ],
      "payable": false,
      "stateMutability": "view",
      "type": "function"
    },
    {
      "constant": false,
      "inputs": [
        {
          "name": "_baseURI",
          "type": "string"
        }
      ],
      "name": "setBaseURI",
      "outputs": [],
      "payable": false,
      "stateMutability": "nonpayable",
      "type": "function"
    },
    {
      "constant": true,
      "inputs": [],
      "name": "paused",
      "outputs": [
        {
          "name": "",
          "type": "bool"
        }
      ],
      "payable": false,
      "stateMutability": "view",
      "type": "function"
    },
    {
      "constant": true,
      "inputs": [
        {
          "name": "_worldId",
          "type": "uint32"
        },
        {
          "name": "_x",
          "type": "int64"
        },
        {
          "name": "_y",
          "type": "int64"
        }
      ],
      "name": "tokenURI",
      "outputs": [
        {
          "name": "",
          "type": "string"
        }
      ],
      "payable": false,
      "stateMutability": "view",
      "type": "function"
    },
    {
      "constant": true,
      "inputs": [
        {
          "name": "_tokenId",
          "type": "uint256"
        }
      ],
      "name": "ownerOf",
      "outputs": [
        {
          "name": "",
          "type": "address"
        }
      ],
      "payable": false,
      "stateMutability": "view",
      "type": "function"
    },
    {
      "constant": false,
      "inputs": [
        {
          "name": "_worldId",
          "type": "uint32"
        },
        {
          "name": "_x",
          "type": "int64"
        },
        {
          "name": "_y",
          "type": "int64"
        }
      ],
      "name": "create",
      "outputs": [],
      "payable": false,
      "stateMutability": "nonpayable",
      "type": "function"
    },
    {
      "constant": true,
      "inputs": [
        {
          "name": "_owner",
          "type": "address"
        }
      ],
      "name": "balanceOf",
      "outputs": [
        {
          "name": "",
          "type": "uint256"
        }
      ],
      "payable": false,
      "stateMutability": "view",
      "type": "function"
    },
    {
      "constant": false,
      "inputs": [],
      "name": "renounceOwnership",
      "outputs": [],
      "payable": false,
      "stateMutability": "nonpayable",
      "type": "function"
    },
    {
      "constant": true,
      "inputs": [
        {
          "name": "_worldId",
          "type": "uint32"
        },
        {
          "name": "_x",
          "type": "int64"
        },
        {
          "name": "_y",
          "type": "int64"
        }
      ],
      "name": "ownerOf",
      "outputs": [
        {
          "name": "",
          "type": "address"
        }
      ],
      "payable": false,
      "stateMutability": "view",
      "type": "function"
    },
    {
      "constant": true,
      "inputs": [
        {
          "name": "_tokenId",
          "type": "uint256"
        }
      ],
      "name": "decodeTokenId",
      "outputs": [
        {
          "name": "_worldId",
          "type": "uint32"
        },
        {
          "name": "_x",
          "type": "int64"
        },
        {
          "name": "_y",
          "type": "int64"
        }
      ],
      "payable": false,
      "stateMutability": "pure",
      "type": "function"
    },
    {
      "constant": false,
      "inputs": [],
      "name": "pause",
      "outputs": [],
      "payable": false,
      "stateMutability": "nonpayable",
      "type": "function"
    },
    {
      "constant": true,
      "inputs": [],
      "name": "owner",
      "outputs": [
        {
          "name": "",
          "type": "address"
        }
      ],
      "payable": false,
      "stateMutability": "view",
      "type": "function"
    },
    {
      "constant": true,
      "inputs": [],
      "name": "symbol",
      "outputs": [
        {
          "name": "",
          "type": "string"
        }
      ],
      "payable": false,
      "stateMutability": "view",
      "type": "function"
    },
    {
      "constant": true,
      "inputs": [
        {
          "name": "_owner",
          "type": "address"
        }
      ],
      "name": "landsOf",
      "outputs": [
        {
          "name": "",
          "type": "uint32[]"
        },
        {
          "name": "",
          "type": "int64[]"
        },
        {
          "name": "",
          "type": "int64[]"
        }
      ],
      "payable": false,
      "stateMutability": "view",
      "type": "function"
    },
    {
      "constant": false,
      "inputs": [
        {
          "name": "_worldId",
          "type": "uint32"
        },
        {
          "name": "_xs",
          "type": "int64[]"
        },
        {
          "name": "_ys",
          "type": "int64[]"
        }
      ],
      "name": "create",
      "outputs": [],
      "payable": false,
      "stateMutability": "nonpayable",
      "type": "function"
    },
    {
      "constant": false,
      "inputs": [
        {
          "name": "_worldId",
          "type": "uint32"
        },
        {
          "name": "_x",
          "type": "int64"
        },
        {
          "name": "_y",
          "type": "int64"
        }
      ],
      "name": "detroy",
      "outputs": [],
      "payable": false,
      "stateMutability": "nonpayable",
      "type": "function"
    },
    {
      "constant": false,
      "inputs": [
        {
          "name": "_to",
          "type": "address"
        },
        {
          "name": "_approved",
          "type": "bool"
        }
      ],
      "name": "setApprovalForAll",
      "outputs": [],
      "payable": false,
      "stateMutability": "nonpayable",
      "type": "function"
    },
    {
      "constant": false,
      "inputs": [
        {
          "name": "_to",
          "type": "address"
        },
        {
          "name": "_worldId",
          "type": "uint32"
        },
        {
          "name": "_x",
          "type": "int64"
        },
        {
          "name": "_y",
          "type": "int64"
        }
      ],
      "name": "createAndTransfer",
      "outputs": [],
      "payable": false,
      "stateMutability": "nonpayable",
      "type": "function"
    },
    {
      "constant": true,
      "inputs": [
        {
          "name": "_checkWorld",
          "type": "uint32"
        }
      ],
      "name": "allLands",
      "outputs": [
        {
          "name": "xs",
          "type": "int64[]"
        },
        {
          "name": "ys",
          "type": "int64[]"
        },
        {
          "name": "owners",
          "type": "address[]"
        }
      ],
      "payable": false,
      "stateMutability": "view",
      "type": "function"
    },
    {
      "constant": false,
      "inputs": [
        {
          "name": "recipient",
          "type": "address"
        }
      ],
      "name": "authorize",
      "outputs": [],
      "payable": false,
      "stateMutability": "nonpayable",
      "type": "function"
    },
    {
      "constant": false,
      "inputs": [
        {
          "name": "_from",
          "type": "address"
        },
        {
          "name": "_to",
          "type": "address"
        },
        {
          "name": "_tokenId",
          "type": "uint256"
        },
        {
          "name": "_data",
          "type": "bytes"
        }
      ],
      "name": "safeTransferFrom",
      "outputs": [],
      "payable": false,
      "stateMutability": "nonpayable",
      "type": "function"
    },
    {
      "constant": true,
      "inputs": [
        {
          "name": "_tokenId",
          "type": "uint256"
        }
      ],
      "name": "tokenURI",
      "outputs": [
        {
          "name": "",
          "type": "string"
        }
      ],
      "payable": false,
      "stateMutability": "view",
      "type": "function"
    },
    {
      "constant": true,
      "inputs": [
        {
          "name": "_worldId",
          "type": "uint32"
        },
        {
          "name": "_x",
          "type": "int64"
        },
        {
          "name": "_y",
          "type": "int64"
        }
      ],
      "name": "encodeTokenId",
      "outputs": [
        {
          "name": "",
          "type": "uint256"
        }
      ],
      "payable": false,
      "stateMutability": "pure",
      "type": "function"
    },
    {
      "constant": true,
      "inputs": [
        {
          "name": "_owner",
          "type": "address"
        },
        {
          "name": "_operator",
          "type": "address"
        }
      ],
      "name": "isApprovedForAll",
      "outputs": [
        {
          "name": "",
          "type": "bool"
        }
      ],
      "payable": false,
      "stateMutability": "view",
      "type": "function"
    },
    {
      "constant": true,
      "inputs": [],
      "name": "baseURI_",
      "outputs": [
        {
          "name": "",
          "type": "string"
        }
      ],
      "payable": false,
      "stateMutability": "view",
      "type": "function"
    },
    {
      "constant": false,
      "inputs": [
        {
          "name": "_newOwner",
          "type": "address"
        }
      ],
      "name": "transferOwnership",
      "outputs": [],
      "payable": false,
      "stateMutability": "nonpayable",
      "type": "function"
    },
    {
      "constant": true,
      "inputs": [
        {
          "name": "_worldId",
          "type": "uint32"
        },
        {
          "name": "_owner",
          "type": "address"
        }
      ],
      "name": "landsOf",
      "outputs": [
        {
          "name": "",
          "type": "int64[]"
        },
        {
          "name": "",
          "type": "int64[]"
        }
      ],
      "payable": false,
      "stateMutability": "view",
      "type": "function"
    },
    {
      "inputs": [
        {
          "name": "_worldAddress",
          "type": "address"
        }
      ],
      "payable": false,
      "stateMutability": "nonpayable",
      "type": "constructor"
    },
    {
      "payable": true,
      "stateMutability": "payable",
      "type": "fallback"
    },
    {
      "anonymous": false,
      "inputs": [
        {
          "indexed": true,
          "name": "_world",
          "type": "uint32"
        },
        {
          "indexed": true,
          "name": "_x",
          "type": "int64"
        },
        {
          "indexed": true,
          "name": "_y",
          "type": "int64"
        }
      ],
      "name": "Create",
      "type": "event"
    },
    {
      "anonymous": false,
      "inputs": [],
      "name": "Pause",
      "type": "event"
    },
    {
      "anonymous": false,
      "inputs": [],
      "name": "Unpause",
      "type": "event"
    },
    {
      "anonymous": false,
      "inputs": [
        {
          "indexed": true,
          "name": "previousOwner",
          "type": "address"
        }
      ],
      "name": "OwnershipRenounced",
      "type": "event"
    },
    {
      "anonymous": false,
      "inputs": [
        {
          "indexed": true,
          "name": "previousOwner",
          "type": "address"
        },
        {
          "indexed": true,
          "name": "newOwner",
          "type": "address"
        }
      ],
      "name": "OwnershipTransferred",
      "type": "event"
    },
    {
      "anonymous": false,
      "inputs": [
        {
          "indexed": true,
          "name": "_from",
          "type": "address"
        },
        {
          "indexed": true,
          "name": "_to",
          "type": "address"
        },
        {
          "indexed": true,
          "name": "_tokenId",
          "type": "uint256"
        }
      ],
      "name": "Transfer",
      "type": "event"
    },
    {
      "anonymous": false,
      "inputs": [
        {
          "indexed": true,
          "name": "_owner",
          "type": "address"
        },
        {
          "indexed": true,
          "name": "_approved",
          "type": "address"
        },
        {
          "indexed": true,
          "name": "_tokenId",
          "type": "uint256"
        }
      ],
      "name": "Approval",
      "type": "event"
    },
    {
      "anonymous": false,
      "inputs": [
        {
          "indexed": true,
          "name": "_owner",
          "type": "address"
        },
        {
          "indexed": true,
          "name": "_operator",
          "type": "address"
        },
        {
          "indexed": false,
          "name": "_approved",
          "type": "bool"
        }
      ],
      "name": "ApprovalForAll",
      "type": "event"
    },
    {
      "constant": false,
      "inputs": [
        {
          "name": "_worldId",
          "type": "uint32"
        },
        {
          "name": "_x",
          "type": "int64"
        },
        {
          "name": "_y",
          "type": "int64"
        },
        {
          "name": "_biddingPrice",
          "type": "uint256"
        }
      ],
      "name": "setBidPrice",
      "outputs": [],
      "payable": false,
      "stateMutability": "nonpayable",
      "type": "function"
    },
    {
      "constant": false,
      "inputs": [
        {
          "name": "_worldId",
          "type": "uint32"
        },
        {
          "name": "_x",
          "type": "int64"
        },
        {
          "name": "_y",
          "type": "int64"
        },
        {
          "name": "_name",
          "type": "string"
        },
        {
          "name": "_description",
          "type": "string"
        }
      ],
      "name": "setInfo",
      "outputs": [],
      "payable": false,
      "stateMutability": "nonpayable",
      "type": "function"
    },
    {
      "constant": true,
      "inputs": [
        {
          "name": "_tokenId",
          "type": "uint256"
        }
      ],
      "name": "nameOf",
      "outputs": [
        {
          "name": "",
          "type": "string"
        }
      ],
      "payable": false,
      "stateMutability": "view",
      "type": "function"
    },
    {
      "constant": true,
      "inputs": [
        {
          "name": "_tokenId",
          "type": "uint256"
        }
      ],
      "name": "descriptionOf",
      "outputs": [
        {
          "name": "",
          "type": "string"
        }
      ],
      "payable": false,
      "stateMutability": "view",
      "type": "function"
    },
    {
      "constant": true,
      "inputs": [
        {
          "name": "_tokenId",
          "type": "uint256"
        }
      ],
      "name": "infoOf",
      "outputs": [
        {
          "name": "",
          "type": "string"
        },
        {
          "name": "",
          "type": "string"
        }
      ],
      "payable": false,
      "stateMutability": "view",
      "type": "function"
    }
  ],
  "bytecode": "0x60806040526000600c60146101000a81548160ff0219169083151502179055506040805190810160405280601f81526020017f687474703a2f2f6170692e626c6f636b34322e776f726c642f6c616e64732f00815250600f90805190602001906200006c929190620003b8565b503480156200007a57600080fd5b506040516020806200540583398101806040528101908080519060200190929190505050806040805190810160405280600c81526020017f426c6f636b3432204c616e6400000000000000000000000000000000000000008152506040805190810160405280600581526020017f4234324c44000000000000000000000000000000000000000000000000000000815250620001486301ffc9a77c010000000000000000000000000000000000000000000000000000000002620002fa640100000000026401000000009004565b620001856380ac58cd7c010000000000000000000000000000000000000000000000000000000002620002fa640100000000026401000000009004565b620001c2634f558e797c010000000000000000000000000000000000000000000000000000000002620002fa640100000000026401000000009004565b8160059080519060200190620001da929190620003b8565b508060069080519060200190620001f3929190620003b8565b506200023163780e9d637c010000000000000000000000000000000000000000000000000000000002620002fa640100000000026401000000009004565b6200026e635b5e139f7c010000000000000000000000000000000000000000000000000000000002620002fa640100000000026401000000009004565b505033600c60006101000a81548173ffffffffffffffffffffffffffffffffffffffff021916908373ffffffffffffffffffffffffffffffffffffffff16021790555080600d60006101000a81548173ffffffffffffffffffffffffffffffffffffffff021916908373ffffffffffffffffffffffffffffffffffffffff160217905550505062000467565b63ffffffff7c010000000000000000000000000000000000000000000000000000000002817bffffffffffffffffffffffffffffffffffffffffffffffffffffffff1916141515156200034c57600080fd5b6001600080837bffffffffffffffffffffffffffffffffffffffffffffffffffffffff19167bffffffffffffffffffffffffffffffffffffffffffffffffffffffff1916815260200190815260200160002060006101000a81548160ff02191690831515021790555050565b828054600181600116156101000203166002900490600052602060002090601f016020900481019282601f10620003fb57805160ff19168380011785556200042c565b828001600101855582156200042c579182015b828111156200042b5782518255916020019190600101906200040e565b5b5090506200043b91906200043f565b5090565b6200046491905b808211156200046057600081600090555060010162000446565b5090565b90565b614f8e80620004776000396000f30060806040526004361061021a576000357c0100000000000000000000000000000000000000000000000000000000900463ffffffff16806301ffc9a71461021f578063051a26641461028357806306fdde0314610329578063081812fc146103b9578063095ea7b3146104265780630ee7a1fd1461047357806318160ddd146104d857806319fa8f501461050357806323b872dd1461056c5780632f745c59146105d95780633e0fb2671461063a5780633f4ba83a146106e057806342842e0e146106f75780634f558e79146107645780634f6ccce7146107a957806355f804b3146107ea5780635c975abb146108535780635e89bcfd146108825780636352211e14610948578063661a5499146109b55780636aa2039d14610a0257806370a0823114610adb578063715018a614610b3257806378b38f3614610b495780637eb30c8714610c5b5780637efd911214610ce85780638456cb5914610d4f5780638da5cb5b14610d6657806395d89b4114610dbd5780639805d7d214610e4d5780639c441cd514610f755780639e4611641461102e578063a22cb4651461107b578063a6208e7d146110ca578063a71c08ab14611121578063b462069b1461118e578063b6a5d7de146112a6578063b88d4fde146112e9578063c87b56dd1461139c578063c9fe6f5a14611442578063e985e9c5146114a3578063f259a29e1461151e578063f2fde38b146115ae578063f628302c146115f1575b600080fd5b34801561022b57600080fd5b5061026960048036038101908080357bffffffffffffffffffffffffffffffffffffffffffffffffffffffff191690602001909291905050506116e1565b604051808215151515815260200191505060405180910390f35b34801561028f57600080fd5b506102ae60048036038101908080359060200190929190505050611748565b6040518080602001828103825283818151815260200191508051906020019080838360005b838110156102ee5780820151818401526020810190506102d3565b50505050905090810190601f16801561031b5780820380516001836020036101000a031916815260200191505b509250505060405180910390f35b34801561033557600080fd5b5061033e6117fd565b6040518080602001828103825283818151815260200191508051906020019080838360005b8381101561037e578082015181840152602081019050610363565b50505050905090810190601f1680156103ab5780820380516001836020036101000a031916815260200191505b509250505060405180910390f35b3480156103c557600080fd5b506103e46004803603810190808035906020019092919050505061189f565b604051808273ffffffffffffffffffffffffffffffffffffffff1673ffffffffffffffffffffffffffffffffffffffff16815260200191505060405180910390f35b34801561043257600080fd5b50610471600480360381019080803573ffffffffffffffffffffffffffffffffffffffff169060200190929190803590602001909291905050506118dc565b005b34801561047f57600080fd5b506104be600480360381019080803563ffffffff169060200190929190803560070b9060200190929190803560070b9060200190929190505050611a21565b604051808215151515815260200191505060405180910390f35b3480156104e457600080fd5b506104ed611a3f565b6040518082815260200191505060405180910390f35b34801561050f57600080fd5b50610518611a4c565b60405180827bffffffffffffffffffffffffffffffffffffffffffffffffffffffff19167bffffffffffffffffffffffffffffffffffffffffffffffffffffffff1916815260200191505060405180910390f35b34801561057857600080fd5b506105d7600480360381019080803573ffffffffffffffffffffffffffffffffffffffff169060200190929190803573ffffffffffffffffffffffffffffffffffffffff16906020019092919080359060200190929190505050611a73565b005b3480156105e557600080fd5b50610624600480360381019080803573ffffffffffffffffffffffffffffffffffffffff16906020019092919080359060200190929190505050611b80565b6040518082815260200191505060405180910390f35b34801561064657600080fd5b5061066560048036038101908080359060200190929190505050611bf7565b6040518080602001828103825283818151815260200191508051906020019080838360005b838110156106a557808201518184015260208101905061068a565b50505050905090810190601f1680156106d25780820380516001836020036101000a031916815260200191505b509250505060405180910390f35b3480156106ec57600080fd5b506106f5611cac565b005b34801561070357600080fd5b50610762600480360381019080803573ffffffffffffffffffffffffffffffffffffffff169060200190929190803573ffffffffffffffffffffffffffffffffffffffff16906020019092919080359060200190929190505050611d6c565b005b34801561077057600080fd5b5061078f60048036038101908080359060200190929190505050611da4565b604051808215151515815260200191505060405180910390f35b3480156107b557600080fd5b506107d460048036038101908080359060200190929190505050611e16565b6040518082815260200191505060405180910390f35b3480156107f657600080fd5b50610851600480360381019080803590602001908201803590602001908080601f0160208091040260200160405190810160405280939291908181526020018383808284378201915050505050509192919290505050611e4e565b005b34801561085f57600080fd5b50610868611ec4565b604051808215151515815260200191505060405180910390f35b34801561088e57600080fd5b506108cd600480360381019080803563ffffffff169060200190929190803560070b9060200190929190803560070b9060200190929190505050611ed7565b6040518080602001828103825283818151815260200191508051906020019080838360005b8381101561090d5780820151818401526020810190506108f2565b50505050905090810190601f16801561093a5780820380516001836020036101000a031916815260200191505b509250505060405180910390f35b34801561095457600080fd5b5061097360048036038101908080359060200190929190505050611ef5565b604051808273ffffffffffffffffffffffffffffffffffffffff1673ffffffffffffffffffffffffffffffffffffffff16815260200191505060405180910390f35b3480156109c157600080fd5b50610a00600480360381019080803563ffffffff169060200190929190803560070b9060200190929190803560070b9060200190929190505050611f73565b005b348015610a0e57600080fd5b50610ad9600480360381019080803563ffffffff169060200190929190803560070b9060200190929190803560070b9060200190929190803590602001908201803590602001908080601f0160208091040260200160405190810160405280939291908181526020018383808284378201915050505050509192919290803590602001908201803590602001908080601f0160208091040260200160405190810160405280939291908181526020018383808284378201915050505050509192919290505050612159565b005b348015610ae757600080fd5b50610b1c600480360381019080803573ffffffffffffffffffffffffffffffffffffffff16906020019092919050505061237d565b6040518082815260200191505060405180910390f35b348015610b3e57600080fd5b50610b47612401565b005b348015610b5557600080fd5b50610b7460048036038101908080359060200190929190505050612506565b604051808060200180602001838103835285818151815260200191508051906020019080838360005b83811015610bb8578082015181840152602081019050610b9d565b50505050905090810190601f168015610be55780820380516001836020036101000a031916815260200191505b50838103825284818151815260200191508051906020019080838360005b83811015610c1e578082015181840152602081019050610c03565b50505050905090810190601f168015610c4b5780820380516001836020036101000a031916815260200191505b5094505050505060405180910390f35b348015610c6757600080fd5b50610ca6600480360381019080803563ffffffff169060200190929190803560070b9060200190929190803560070b9060200190929190505050612670565b604051808273ffffffffffffffffffffffffffffffffffffffff1673ffffffffffffffffffffffffffffffffffffffff16815260200191505060405180910390f35b348015610cf457600080fd5b50610d136004803603810190808035906020019092919050505061268e565b604051808463ffffffff1663ffffffff1681526020018360070b60070b81526020018260070b60070b8152602001935050505060405180910390f35b348015610d5b57600080fd5b50610d64612722565b005b348015610d7257600080fd5b50610d7b6127e3565b604051808273ffffffffffffffffffffffffffffffffffffffff1673ffffffffffffffffffffffffffffffffffffffff16815260200191505060405180910390f35b348015610dc957600080fd5b50610dd2612809565b6040518080602001828103825283818151815260200191508051906020019080838360005b83811015610e12578082015181840152602081019050610df7565b50505050905090810190601f168015610e3f5780820380516001836020036101000a031916815260200191505b509250505060405180910390f35b348015610e5957600080fd5b50610e8e600480360381019080803573ffffffffffffffffffffffffffffffffffffffff1690602001909291905050506128ab565b60405180806020018060200180602001848103845287818151815260200191508051906020019060200280838360005b83811015610ed9578082015181840152602081019050610ebe565b50505050905001848103835286818151815260200191508051906020019060200280838360005b83811015610f1b578082015181840152602081019050610f00565b50505050905001848103825285818151815260200191508051906020019060200280838360005b83811015610f5d578082015181840152602081019050610f42565b50505050905001965050505050505060405180910390f35b348015610f8157600080fd5b5061102c600480360381019080803563ffffffff1690602001909291908035906020019082018035906020019080806020026020016040519081016040528093929190818152602001838360200280828437820191505050505050919291929080359060200190820180359060200190808060200260200160405190810160405280939291908181526020018383602002808284378201915050505050509192919290505050612aaa565b005b34801561103a57600080fd5b50611079600480360381019080803563ffffffff169060200190929190803560070b9060200190929190803560070b9060200190929190505050612cfe565b005b34801561108757600080fd5b506110c8600480360381019080803573ffffffffffffffffffffffffffffffffffffffff169060200190929190803515159060200190929190505050612f07565b005b3480156110d657600080fd5b5061111f600480360381019080803563ffffffff169060200190929190803560070b9060200190929190803560070b906020019092919080359060200190929190505050613043565b005b34801561112d57600080fd5b5061118c600480360381019080803573ffffffffffffffffffffffffffffffffffffffff169060200190929190803563ffffffff169060200190929190803560070b9060200190929190803560070b9060200190929190505050613246565b005b34801561119a57600080fd5b506111bf600480360381019080803563ffffffff169060200190929190505050613476565b60405180806020018060200180602001848103845287818151815260200191508051906020019060200280838360005b8381101561120a5780820151818401526020810190506111ef565b50505050905001848103835286818151815260200191508051906020019060200280838360005b8381101561124c578082015181840152602081019050611231565b50505050905001848103825285818151815260200191508051906020019060200280838360005b8381101561128e578082015181840152602081019050611273565b50505050905001965050505050505060405180910390f35b3480156112b257600080fd5b506112e7600480360381019080803573ffffffffffffffffffffffffffffffffffffffff169060200190929190505050613630565b005b3480156112f557600080fd5b5061139a600480360381019080803573ffffffffffffffffffffffffffffffffffffffff169060200190929190803573ffffffffffffffffffffffffffffffffffffffff16906020019092919080359060200190929190803590602001908201803590602001908080601f016020809104026020016040519081016040528093929190818152602001838380828437820191505050505050919291929050505061377d565b005b3480156113a857600080fd5b506113c7600480360381019080803590602001909291905050506137bc565b6040518080602001828103825283818151815260200191508051906020019080838360005b838110156114075780820151818401526020810190506113ec565b50505050905090810190601f1680156114345780820380516001836020036101000a031916815260200191505b509250505060405180910390f35b34801561144e57600080fd5b5061148d600480360381019080803563ffffffff169060200190929190803560070b9060200190929190803560070b9060200190929190505050613a7d565b6040518082815260200191505060405180910390f35b3480156114af57600080fd5b50611504600480360381019080803573ffffffffffffffffffffffffffffffffffffffff169060200190929190803573ffffffffffffffffffffffffffffffffffffffff169060200190929190505050613b35565b604051808215151515815260200191505060405180910390f35b34801561152a57600080fd5b50611533613bc9565b6040518080602001828103825283818151815260200191508051906020019080838360005b83811015611573578082015181840152602081019050611558565b50505050905090810190601f1680156115a05780820380516001836020036101000a031916815260200191505b509250505060405180910390f35b3480156115ba57600080fd5b506115ef600480360381019080803573ffffffffffffffffffffffffffffffffffffffff169060200190929190505050613c67565b005b3480156115fd57600080fd5b50611642600480360381019080803563ffffffff169060200190929190803573ffffffffffffffffffffffffffffffffffffffff169060200190929190505050613ccf565b604051808060200180602001838103835285818151815260200191508051906020019060200280838360005b8381101561168957808201518184015260208101905061166e565b50505050905001838103825284818151815260200191508051906020019060200280838360005b838110156116cb5780820151818401526020810190506116b0565b5050505090500194505050505060405180910390f35b6000806000837bffffffffffffffffffffffffffffffffffffffffffffffffffffffff19167bffffffffffffffffffffffffffffffffffffffffffffffffffffffff1916815260200190815260200160002060009054906101000a900460ff169050919050565b6060601160008381526020019081526020016000208054600181600116156101000203166002900480601f0160208091040260200160405190810160405280929190818152602001828054600181600116156101000203166002900480156117f15780601f106117c6576101008083540402835291602001916117f1565b820191906000526020600020905b8154815290600101906020018083116117d457829003601f168201915b50505050509050919050565b606060058054600181600116156101000203166002900480601f0160208091040260200160405190810160405280929190818152602001828054600181600116156101000203166002900480156118955780601f1061186a57610100808354040283529160200191611895565b820191906000526020600020905b81548152906001019060200180831161187857829003601f168201915b5050505050905090565b60006002600083815260200190815260200160002060009054906101000a900473ffffffffffffffffffffffffffffffffffffffff169050919050565b60006118e782611ef5565b90508073ffffffffffffffffffffffffffffffffffffffff168373ffffffffffffffffffffffffffffffffffffffff161415151561192457600080fd5b8073ffffffffffffffffffffffffffffffffffffffff163373ffffffffffffffffffffffffffffffffffffffff16148061196457506119638133613b35565b5b151561196f57600080fd5b826002600084815260200190815260200160002060006101000a81548173ffffffffffffffffffffffffffffffffffffffff021916908373ffffffffffffffffffffffffffffffffffffffff160217905550818373ffffffffffffffffffffffffffffffffffffffff168273ffffffffffffffffffffffffffffffffffffffff167f8c5be1e5ebec7d5bd14f71427d1e84f3dd0314c0f7b2291e5b200ac8c7c3b92560405160405180910390a4505050565b6000611a36611a31858585613a7d565b611da4565b90509392505050565b6000600980549050905090565b6301ffc9a77c01000000000000000000000000000000000000000000000000000000000281565b80611a7e3382613e7e565b1515611a8957600080fd5b600073ffffffffffffffffffffffffffffffffffffffff168473ffffffffffffffffffffffffffffffffffffffff1614151515611ac557600080fd5b600073ffffffffffffffffffffffffffffffffffffffff168373ffffffffffffffffffffffffffffffffffffffff1614151515611b0157600080fd5b611b0b8483613f13565b611b158483614016565b611b1f838361422e565b818373ffffffffffffffffffffffffffffffffffffffff168573ffffffffffffffffffffffffffffffffffffffff167fddf252ad1be2c89b69c2b068fc378daa952ba7f163c4a11628f55a4df523b3ef60405160405180910390a450505050565b6000611b8b8361237d565b82101515611b9857600080fd5b600760008473ffffffffffffffffffffffffffffffffffffffff1673ffffffffffffffffffffffffffffffffffffffff16815260200190815260200160002082815481101515611be457fe5b9060005260206000200154905092915050565b6060601260008381526020019081526020016000208054600181600116156101000203166002900480601f016020809104026020016040519081016040528092919081815260200182805460018160011615610100020316600290048015611ca05780601f10611c7557610100808354040283529160200191611ca0565b820191906000526020600020905b815481529060010190602001808311611c8357829003601f168201915b50505050509050919050565b600c60009054906101000a900473ffffffffffffffffffffffffffffffffffffffff1673ffffffffffffffffffffffffffffffffffffffff163373ffffffffffffffffffffffffffffffffffffffff16141515611d0857600080fd5b600c60149054906101000a900460ff161515611d2357600080fd5b6000600c60146101000a81548160ff0219169083151502179055507f7805862f689e2f13df9f062ff482ad3ad112aca9e0847911ed832e158c525b3360405160405180910390a1565b80611d773382613e7e565b1515611d8257600080fd5b611d9e848484602060405190810160405280600081525061377d565b50505050565b6000806001600084815260200190815260200160002060009054906101000a900473ffffffffffffffffffffffffffffffffffffffff169050600073ffffffffffffffffffffffffffffffffffffffff168173ffffffffffffffffffffffffffffffffffffffff161415915050919050565b6000611e20611a3f565b82101515611e2d57600080fd5b600982815481101515611e3c57fe5b90600052602060002001549050919050565b600c60009054906101000a900473ffffffffffffffffffffffffffffffffffffffff1673ffffffffffffffffffffffffffffffffffffffff163373ffffffffffffffffffffffffffffffffffffffff16141515611eaa57600080fd5b80600f9080519060200190611ec0929190614e49565b5050565b600c60149054906101000a900460ff1681565b6060611eec611ee7858585613a7d565b6137bc565b90509392505050565b6000806001600084815260200190815260200160002060009054906101000a900473ffffffffffffffffffffffffffffffffffffffff169050600073ffffffffffffffffffffffffffffffffffffffff168173ffffffffffffffffffffffffffffffffffffffff1614151515611f6a57600080fd5b80915050919050565b82600d60009054906101000a900473ffffffffffffffffffffffffffffffffffffffff1673ffffffffffffffffffffffffffffffffffffffff16636352211e826040518263ffffffff167c0100000000000000000000000000000000000000000000000000000000028152600401808263ffffffff168152602001915050602060405180830381600087803b15801561200b57600080fd5b505af115801561201f573d6000803e3d6000fd5b505050506040513d602081101561203557600080fd5b810190808051906020019092919050505073ffffffffffffffffffffffffffffffffffffffff163373ffffffffffffffffffffffffffffffffffffffff1614806120cc5750600c60009054906101000a900473ffffffffffffffffffffffffffffffffffffffff1673ffffffffffffffffffffffffffffffffffffffff163373ffffffffffffffffffffffffffffffffffffffff16145b806121205750600e60003373ffffffffffffffffffffffffffffffffffffffff1673ffffffffffffffffffffffffffffffffffffffff16815260200190815260200160002060009054906101000a900460ff165b151561212b57600080fd5b838383612139838383614305565b151561214457600080fd5b61215033888888613246565b50505050505050565b6000858585612169838383614305565b151561217457600080fd5b61217f898989613a7d565b935061218a84611ef5565b73ffffffffffffffffffffffffffffffffffffffff163373ffffffffffffffffffffffffffffffffffffffff1614806122bf5750600d60009054906101000a900473ffffffffffffffffffffffffffffffffffffffff1673ffffffffffffffffffffffffffffffffffffffff16636352211e8a6040518263ffffffff167c0100000000000000000000000000000000000000000000000000000000028152600401808263ffffffff168152602001915050602060405180830381600087803b15801561225557600080fd5b505af1158015612269573d6000803e3d6000fd5b505050506040513d602081101561227f57600080fd5b810190808051906020019092919050505073ffffffffffffffffffffffffffffffffffffffff163373ffffffffffffffffffffffffffffffffffffffff16145b806123175750600c60009054906101000a900473ffffffffffffffffffffffffffffffffffffffff1673ffffffffffffffffffffffffffffffffffffffff163373ffffffffffffffffffffffffffffffffffffffff16145b151561232257600080fd5b85601160008681526020019081526020016000209080519060200190612349929190614e49565b5084601260008681526020019081526020016000209080519060200190612371929190614e49565b50505050505050505050565b60008073ffffffffffffffffffffffffffffffffffffffff168273ffffffffffffffffffffffffffffffffffffffff16141515156123ba57600080fd5b600360008373ffffffffffffffffffffffffffffffffffffffff1673ffffffffffffffffffffffffffffffffffffffff168152602001908152602001600020549050919050565b600c60009054906101000a900473ffffffffffffffffffffffffffffffffffffffff1673ffffffffffffffffffffffffffffffffffffffff163373ffffffffffffffffffffffffffffffffffffffff1614151561245d57600080fd5b600c60009054906101000a900473ffffffffffffffffffffffffffffffffffffffff1673ffffffffffffffffffffffffffffffffffffffff167ff8df31144d9c2f0f6b59d69b8b98abd5459d07f2742c4df920b25aae33c6482060405160405180910390a26000600c60006101000a81548173ffffffffffffffffffffffffffffffffffffffff021916908373ffffffffffffffffffffffffffffffffffffffff160217905550565b6060806011600084815260200190815260200160002060126000858152602001908152602001600020818054600181600116156101000203166002900480601f0160208091040260200160405190810160405280929190818152602001828054600181600116156101000203166002900480156125c45780601f10612599576101008083540402835291602001916125c4565b820191906000526020600020905b8154815290600101906020018083116125a757829003601f168201915b50505050509150808054600181600116156101000203166002900480601f0160208091040260200160405190810160405280929190818152602001828054600181600116156101000203166002900480156126605780601f1061263557610100808354040283529160200191612660565b820191906000526020600020905b81548152906001019060200180831161264357829003601f168201915b5050505050905091509150915091565b6000612685612680858585613a7d565b611ef5565b90509392505050565b600080600060e07fffffffff0000000000000000000000000000000000000000000000000000000085169060020a900460ff16925060707bffffffffffffffffffffffffffff000000000000000000000000000085169060020a900460030b91506dffffffffffffffffffffffffffff841660030b9050612710838383614305565b151561271b57600080fd5b9193909250565b600c60009054906101000a900473ffffffffffffffffffffffffffffffffffffffff1673ffffffffffffffffffffffffffffffffffffffff163373ffffffffffffffffffffffffffffffffffffffff1614151561277e57600080fd5b600c60149054906101000a900460ff1615151561279a57600080fd5b6001600c60146101000a81548160ff0219169083151502179055507f6985a02210a168e66602d3235cb6db0e70f92b3ba4d376a33c0f3d9434bff62560405160405180910390a1565b600c60009054906101000a900473ffffffffffffffffffffffffffffffffffffffff1681565b606060068054600181600116156101000203166002900480601f0160208091040260200160405190810160405280929190818152602001828054600181600116156101000203166002900480156128a15780601f10612876576101008083540402835291602001916128a1565b820191906000526020600020905b81548152906001019060200180831161288457829003601f168201915b5050505050905090565b606080606060006060806060600080600080600760008d73ffffffffffffffffffffffffffffffffffffffff1673ffffffffffffffffffffffffffffffffffffffff168152602001908152602001600020805490509750876040519080825280602002602001820160405280156129315781602001602082028038833980820191505090505b509650876040519080825280602002602001820160405280156129635781602001602082028038833980820191505090505b509550876040519080825280602002602001820160405280156129955781602001602082028038833980820191505090505b509450600090505b87811015612a9257612a04600760008e73ffffffffffffffffffffffffffffffffffffffff1673ffffffffffffffffffffffffffffffffffffffff168152602001908152602001600020828154811015156129f457fe5b906000526020600020015461268e565b809450819550829650505050838782815181101515612a1f57fe5b9060200190602002019063ffffffff16908163ffffffff1681525050828682815181101515612a4a57fe5b9060200190602002019060070b908160070b81525050818582815181101515612a6f57fe5b9060200190602002019060070b908160070b81525050808060010191505061299d565b8686869a509a509a5050505050505050509193909250565b600083600d60009054906101000a900473ffffffffffffffffffffffffffffffffffffffff1673ffffffffffffffffffffffffffffffffffffffff16636352211e826040518263ffffffff167c0100000000000000000000000000000000000000000000000000000000028152600401808263ffffffff168152602001915050602060405180830381600087803b158015612b4457600080fd5b505af1158015612b58573d6000803e3d6000fd5b505050506040513d6020811015612b6e57600080fd5b810190808051906020019092919050505073ffffffffffffffffffffffffffffffffffffffff163373ffffffffffffffffffffffffffffffffffffffff161480612c055750600c60009054906101000a900473ffffffffffffffffffffffffffffffffffffffff1673ffffffffffffffffffffffffffffffffffffffff163373ffffffffffffffffffffffffffffffffffffffff16145b80612c595750600e60003373ffffffffffffffffffffffffffffffffffffffff1673ffffffffffffffffffffffffffffffffffffffff16815260200190815260200160002060009054906101000a900460ff165b1515612c6457600080fd5b600091505b8351821015612cf757612cab858584815181101515612c8457fe5b906020019060200201518585815181101515612c9c57fe5b90602001906020020151614305565b15612cea57612ce9858584815181101515612cc257fe5b906020019060200201518585815181101515612cda57fe5b90602001906020020151611f73565b5b8180600101925050612c69565b5050505050565b600083600d60009054906101000a900473ffffffffffffffffffffffffffffffffffffffff1673ffffffffffffffffffffffffffffffffffffffff16636352211e826040518263ffffffff167c0100000000000000000000000000000000000000000000000000000000028152600401808263ffffffff168152602001915050602060405180830381600087803b158015612d9857600080fd5b505af1158015612dac573d6000803e3d6000fd5b505050506040513d6020811015612dc257600080fd5b810190808051906020019092919050505073ffffffffffffffffffffffffffffffffffffffff163373ffffffffffffffffffffffffffffffffffffffff161480612e595750600c60009054906101000a900473ffffffffffffffffffffffffffffffffffffffff1673ffffffffffffffffffffffffffffffffffffffff163373ffffffffffffffffffffffffffffffffffffffff16145b80612ead5750600e60003373ffffffffffffffffffffffffffffffffffffffff1673ffffffffffffffffffffffffffffffffffffffff16815260200190815260200160002060009054906101000a900460ff165b1515612eb857600080fd5b848484612ec6838383614305565b1515612ed157600080fd5b612edc888888613a7d565b9450612ee83386613e7e565b1515612ef357600080fd5b612efd33866143b1565b5050505050505050565b3373ffffffffffffffffffffffffffffffffffffffff168273ffffffffffffffffffffffffffffffffffffffff1614151515612f4257600080fd5b80600460003373ffffffffffffffffffffffffffffffffffffffff1673ffffffffffffffffffffffffffffffffffffffff16815260200190815260200160002060008473ffffffffffffffffffffffffffffffffffffffff1673ffffffffffffffffffffffffffffffffffffffff16815260200190815260200160002060006101000a81548160ff0219169083151502179055508173ffffffffffffffffffffffffffffffffffffffff163373ffffffffffffffffffffffffffffffffffffffff167f17307eab39ab6107e8899845ad3d59bd9653f200f220920489ca2b5937696c3183604051808215151515815260200191505060405180910390a35050565b6000848484613053838383614305565b151561305e57600080fd5b87600d60009054906101000a900473ffffffffffffffffffffffffffffffffffffffff1673ffffffffffffffffffffffffffffffffffffffff16636352211e826040518263ffffffff167c0100000000000000000000000000000000000000000000000000000000028152600401808263ffffffff168152602001915050602060405180830381600087803b1580156130f657600080fd5b505af115801561310a573d6000803e3d6000fd5b505050506040513d602081101561312057600080fd5b810190808051906020019092919050505073ffffffffffffffffffffffffffffffffffffffff163373ffffffffffffffffffffffffffffffffffffffff1614806131b75750600c60009054906101000a900473ffffffffffffffffffffffffffffffffffffffff1673ffffffffffffffffffffffffffffffffffffffff163373ffffffffffffffffffffffffffffffffffffffff16145b8061320b5750600e60003373ffffffffffffffffffffffffffffffffffffffff1673ffffffffffffffffffffffffffffffffffffffff16815260200190815260200160002060009054906101000a900460ff165b151561321657600080fd5b613221898989613a7d565b9450856010600087815260200190815260200160002081905550505050505050505050565b600083600d60009054906101000a900473ffffffffffffffffffffffffffffffffffffffff1673ffffffffffffffffffffffffffffffffffffffff16636352211e826040518263ffffffff167c0100000000000000000000000000000000000000000000000000000000028152600401808263ffffffff168152602001915050602060405180830381600087803b1580156132e057600080fd5b505af11580156132f4573d6000803e3d6000fd5b505050506040513d602081101561330a57600080fd5b810190808051906020019092919050505073ffffffffffffffffffffffffffffffffffffffff163373ffffffffffffffffffffffffffffffffffffffff1614806133a15750600c60009054906101000a900473ffffffffffffffffffffffffffffffffffffffff1673ffffffffffffffffffffffffffffffffffffffff163373ffffffffffffffffffffffffffffffffffffffff16145b806133f55750600e60003373ffffffffffffffffffffffffffffffffffffffff1673ffffffffffffffffffffffffffffffffffffffff16815260200190815260200160002060009054906101000a900460ff165b151561340057600080fd5b84848461340e838383614305565b151561341957600080fd5b613424888888613a7d565b945061343089866144e9565b8560070b8760070b8963ffffffff167f9d6d15eabb5704581b04daa979ebafef52e5299c0d3d59a30c91c4dd81adb45060405160405180910390a4505050505050505050565b606080606060008060008060006009805490506040519080825280602002602001820160405280156134b75781602001602082028038833980820191505090505b5097506009805490506040519080825280602002602001820160405280156134ee5781602001602082028038833980820191505090505b5096506009805490506040519080825280602002602001820160405280156135255781602001602082028038833980820191505090505b509550600094505b6009805490508510156136245760098581548110151561354957fe5b9060005260206000200154935061355f8461268e565b9250925092508263ffffffff168963ffffffff1614156136175781888681518110151561358857fe5b9060200190602002019060070b908160070b815250508087868151811015156135ad57fe5b9060200190602002019060070b908160070b815250506135cc84611ef5565b86868151811015156135da57fe5b9060200190602002019073ffffffffffffffffffffffffffffffffffffffff16908173ffffffffffffffffffffffffffffffffffffffff16815250505b848060010195505061352d565b50505050509193909250565b600c60009054906101000a900473ffffffffffffffffffffffffffffffffffffffff1673ffffffffffffffffffffffffffffffffffffffff163373ffffffffffffffffffffffffffffffffffffffff1614151561368c57600080fd5b600073ffffffffffffffffffffffffffffffffffffffff168173ffffffffffffffffffffffffffffffffffffffff16141580156137175750600c60009054906101000a900473ffffffffffffffffffffffffffffffffffffffff1673ffffffffffffffffffffffffffffffffffffffff168173ffffffffffffffffffffffffffffffffffffffff1614155b151561372257600080fd5b6001600e60008373ffffffffffffffffffffffffffffffffffffffff1673ffffffffffffffffffffffffffffffffffffffff16815260200190815260200160002060006101000a81548160ff02191690831515021790555050565b816137883382613e7e565b151561379357600080fd5b61379e858585611a73565b6137aa85858585614540565b15156137b557600080fd5b5050505050565b6060806000806000600b60008781526020019081526020016000208054600181600116156101000203166002900480601f01602080910402602001604051908101604052809291908181526020018280546001816001161561010002031660029004801561386b5780601f106138405761010080835404028352916020019161386b565b820191906000526020600020905b81548152906001019060200180831161384e57829003601f168201915b50505050509350600084511415613a73576138858661268e565b925092509250600f61389684614762565b6138a28460070b61477a565b6138ae8460070b61477a565b604051602001808580546001816001161561010002031660029004801561390c5780601f106138ea57610100808354040283529182019161390c565b820191906000526020600020905b8154815290600101906020018083116138f8575b505084805190602001908083835b60208310151561393f578051825260208201915060208101905060208303925061391a565b6001836020036101000a038019825116818451168082178552505050505050905001807f2f0000000000000000000000000000000000000000000000000000000000000081525060010183805190602001908083835b6020831015156139ba5780518252602082019150602081019050602083039250613995565b6001836020036101000a038019825116818451168082178552505050505050905001807f2f0000000000000000000000000000000000000000000000000000000000000081525060010182805190602001908083835b602083101515613a355780518252602082019150602081019050602083039250613a10565b6001836020036101000a0380198251168184511680821785525050505050509050019450505050506040516020818303038152906040529450613a74565b5b50505050919050565b6000838383613a8d838383614305565b1515613a9857600080fd5b6dffffffffffffffffffffffffffff8560070b167bffffffffffffffffffffffffffff00000000000000000000000000006e0100000000000000000000000000008860070b02167fffffffff000000000000000000000000000000000000000000000000000000007c01000000000000000000000000000000000000000000000000000000008a63ffffffff160216171793505050509392505050565b6000600460008473ffffffffffffffffffffffffffffffffffffffff1673ffffffffffffffffffffffffffffffffffffffff16815260200190815260200160002060008373ffffffffffffffffffffffffffffffffffffffff1673ffffffffffffffffffffffffffffffffffffffff16815260200190815260200160002060009054906101000a900460ff16905092915050565b600f8054600181600116156101000203166002900480601f016020809104026020016040519081016040528092919081815260200182805460018160011615610100020316600290048015613c5f5780601f10613c3457610100808354040283529160200191613c5f565b820191906000526020600020905b815481529060010190602001808311613c4257829003601f168201915b505050505081565b600c60009054906101000a900473ffffffffffffffffffffffffffffffffffffffff1673ffffffffffffffffffffffffffffffffffffffff163373ffffffffffffffffffffffffffffffffffffffff16141515613cc357600080fd5b613ccc81614962565b50565b6060806000606080600080600080600760008b73ffffffffffffffffffffffffffffffffffffffff1673ffffffffffffffffffffffffffffffffffffffff16815260200190815260200160002080549050965086604051908082528060200260200182016040528015613d515781602001602082028038833980820191505090505b50955086604051908082528060200260200182016040528015613d835781602001602082028038833980820191505090505b509450600090505b86811015613e6a57613df2600760008c73ffffffffffffffffffffffffffffffffffffffff1673ffffffffffffffffffffffffffffffffffffffff16815260200190815260200160002082815481101515613de257fe5b906000526020600020015461268e565b8094508195508296505050508a63ffffffff168463ffffffff161415613e5d57828682815181101515613e2157fe5b9060200190602002019060070b908160070b81525050818582815181101515613e4657fe5b9060200190602002019060070b908160070b815250505b8080600101915050613d8b565b858598509850505050505050509250929050565b600080613e8a83611ef5565b90508073ffffffffffffffffffffffffffffffffffffffff168473ffffffffffffffffffffffffffffffffffffffff161480613ef957508373ffffffffffffffffffffffffffffffffffffffff16613ee18461189f565b73ffffffffffffffffffffffffffffffffffffffff16145b80613f0a5750613f098185613b35565b5b91505092915050565b8173ffffffffffffffffffffffffffffffffffffffff16613f3382611ef5565b73ffffffffffffffffffffffffffffffffffffffff16141515613f5557600080fd5b600073ffffffffffffffffffffffffffffffffffffffff166002600083815260200190815260200160002060009054906101000a900473ffffffffffffffffffffffffffffffffffffffff1673ffffffffffffffffffffffffffffffffffffffff161415156140125760006002600083815260200190815260200160002060006101000a81548173ffffffffffffffffffffffffffffffffffffffff021916908373ffffffffffffffffffffffffffffffffffffffff1602179055505b5050565b60008060006140258585614a5e565b600860008581526020019081526020016000205492506140916001600760008873ffffffffffffffffffffffffffffffffffffffff1673ffffffffffffffffffffffffffffffffffffffff16815260200190815260200160002080549050614b8d90919063ffffffff16565b9150600760008673ffffffffffffffffffffffffffffffffffffffff1673ffffffffffffffffffffffffffffffffffffffff168152602001908152602001600020828154811015156140df57fe5b9060005260206000200154905080600760008773ffffffffffffffffffffffffffffffffffffffff1673ffffffffffffffffffffffffffffffffffffffff1681526020019081526020016000208481548110151561413957fe5b90600052602060002001819055506000600760008773ffffffffffffffffffffffffffffffffffffffff1673ffffffffffffffffffffffffffffffffffffffff1681526020019081526020016000208381548110151561419557fe5b9060005260206000200181905550600760008673ffffffffffffffffffffffffffffffffffffffff1673ffffffffffffffffffffffffffffffffffffffff1681526020019081526020016000208054809190600190036141f59190614ec9565b50600060086000868152602001908152602001600020819055508260086000838152602001908152602001600020819055505050505050565b600061423a8383614ba6565b600760008473ffffffffffffffffffffffffffffffffffffffff1673ffffffffffffffffffffffffffffffffffffffff168152602001908152602001600020805490509050600760008473ffffffffffffffffffffffffffffffffffffffff1673ffffffffffffffffffffffffffffffffffffffff168152602001908152602001600020829080600181540180825580915050906001820390600052602060002001600090919290919091505550806008600084815260200190815260200160002081905550505050565b6000808463ffffffff1610158015614326575063ee6b28008463ffffffff16105b801561435457507fffffffffffffffffffffffffffffffffffffffffffffffffffffff172b5af0008360070b135b8015614367575064e8d4a510008360070b125b801561439557507fffffffffffffffffffffffffffffffffffffffffffffffffffffff172b5af0008260070b135b80156143a8575064e8d4a510008260070b125b90509392505050565b60008060006143c08585614d00565b6000600b600086815260200190815260200160002080546001816001161561010002031660029004905014151561441157600b600085815260200190815260200160002060006144109190614ef5565b5b600a60008581526020019081526020016000205492506144406001600980549050614b8d90919063ffffffff16565b915060098281548110151561445157fe5b906000526020600020015490508060098481548110151561446e57fe5b9060005260206000200181905550600060098381548110151561448d57fe5b906000526020600020018190555060098054809190600190036144b09190614ec9565b506000600a60008681526020019081526020016000208190555082600a6000838152602001908152602001600020819055505050505050565b6144f38282614d74565b600980549050600a60008381526020019081526020016000208190555060098190806001815401808255809150509060018203906000526020600020016000909192909190915055505050565b6000806145628573ffffffffffffffffffffffffffffffffffffffff16614e1a565b15156145715760019150614759565b8473ffffffffffffffffffffffffffffffffffffffff1663150b7a02338887876040518563ffffffff167c0100000000000000000000000000000000000000000000000000000000028152600401808573ffffffffffffffffffffffffffffffffffffffff1673ffffffffffffffffffffffffffffffffffffffff1681526020018473ffffffffffffffffffffffffffffffffffffffff1673ffffffffffffffffffffffffffffffffffffffff16815260200183815260200180602001828103825283818151815260200191508051906020019080838360005b8381101561466657808201518184015260208101905061464b565b50505050905090810190601f1680156146935780820380516001836020036101000a031916815260200191505b5095505050505050602060405180830381600087803b1580156146b557600080fd5b505af11580156146c9573d6000803e3d6000fd5b505050506040513d60208110156146df57600080fd5b8101908080519060200190929190505050905063150b7a027c0100000000000000000000000000000000000000000000000000000000027bffffffffffffffffffffffffffffffffffffffffffffffffffffffff1916817bffffffffffffffffffffffffffffffffffffffffffffffffffffffff19161491505b50949350505050565b60606147738263ffffffff1661477a565b9050919050565b606060008060008060606000808814156147cb576040805190810160405280600181526020017f30000000000000000000000000000000000000000000000000000000000000008152509650614957565b600088129550856147dc57876147e1565b876000035b94508493505b60008514151561480d578280600101935050600a8581151561480557fe5b0494506147e7565b851561481a578260010192505b826040519080825280601f01601f19166020018201604052801561484d5781602001602082028038833980820191505090505b5091506001830390505b6000841415156148ec57600a8481151561486d57fe5b066030017f0100000000000000000000000000000000000000000000000000000000000000028282806001900393508151811015156148a857fe5b9060200101907effffffffffffffffffffffffffffffffffffffffffffffffffffffffffffff1916908160001a905350600a848115156148e457fe5b049350614857565b8515614953577f2d0000000000000000000000000000000000000000000000000000000000000082600081518110151561492257fe5b9060200101907effffffffffffffffffffffffffffffffffffffffffffffffffffffffffffff1916908160001a9053505b8196505b505050505050919050565b600073ffffffffffffffffffffffffffffffffffffffff168173ffffffffffffffffffffffffffffffffffffffff161415151561499e57600080fd5b8073ffffffffffffffffffffffffffffffffffffffff16600c60009054906101000a900473ffffffffffffffffffffffffffffffffffffffff1673ffffffffffffffffffffffffffffffffffffffff167f8be0079c531659141344cd1fd0a4f28419497f9722a3daafe3b4186f6b6457e060405160405180910390a380600c60006101000a81548173ffffffffffffffffffffffffffffffffffffffff021916908373ffffffffffffffffffffffffffffffffffffffff16021790555050565b8173ffffffffffffffffffffffffffffffffffffffff16614a7e82611ef5565b73ffffffffffffffffffffffffffffffffffffffff16141515614aa057600080fd5b614af36001600360008573ffffffffffffffffffffffffffffffffffffffff1673ffffffffffffffffffffffffffffffffffffffff16815260200190815260200160002054614b8d90919063ffffffff16565b600360008473ffffffffffffffffffffffffffffffffffffffff1673ffffffffffffffffffffffffffffffffffffffff1681526020019081526020016000208190555060006001600083815260200190815260200160002060006101000a81548173ffffffffffffffffffffffffffffffffffffffff021916908373ffffffffffffffffffffffffffffffffffffffff1602179055505050565b6000828211151515614b9b57fe5b818303905092915050565b600073ffffffffffffffffffffffffffffffffffffffff166001600083815260200190815260200160002060009054906101000a900473ffffffffffffffffffffffffffffffffffffffff1673ffffffffffffffffffffffffffffffffffffffff16141515614c1457600080fd5b816001600083815260200190815260200160002060006101000a81548173ffffffffffffffffffffffffffffffffffffffff021916908373ffffffffffffffffffffffffffffffffffffffff160217905550614cb96001600360008573ffffffffffffffffffffffffffffffffffffffff1673ffffffffffffffffffffffffffffffffffffffff16815260200190815260200160002054614e2d90919063ffffffff16565b600360008473ffffffffffffffffffffffffffffffffffffffff1673ffffffffffffffffffffffffffffffffffffffff168152602001908152602001600020819055505050565b614d0a8282613f13565b614d148282614016565b80600073ffffffffffffffffffffffffffffffffffffffff168373ffffffffffffffffffffffffffffffffffffffff167fddf252ad1be2c89b69c2b068fc378daa952ba7f163c4a11628f55a4df523b3ef60405160405180910390a45050565b600073ffffffffffffffffffffffffffffffffffffffff168273ffffffffffffffffffffffffffffffffffffffff1614151515614db057600080fd5b614dba828261422e565b808273ffffffffffffffffffffffffffffffffffffffff16600073ffffffffffffffffffffffffffffffffffffffff167fddf252ad1be2c89b69c2b068fc378daa952ba7f163c4a11628f55a4df523b3ef60405160405180910390a45050565b600080823b905060008111915050919050565b60008183019050828110151515614e4057fe5b80905092915050565b828054600181600116156101000203166002900490600052602060002090601f016020900481019282601f10614e8a57805160ff1916838001178555614eb8565b82800160010185558215614eb8579182015b82811115614eb7578251825591602001919060010190614e9c565b5b509050614ec59190614f3d565b5090565b815481835581811115614ef057818360005260206000209182019101614eef9190614f3d565b5b505050565b50805460018160011615610100020316600290046000825580601f10614f1b5750614f3a565b601f016020900490600052602060002090810190614f399190614f3d565b5b50565b614f5f91905b80821115614f5b576000816000905550600101614f43565b5090565b905600a165627a7a72305820eeb3ff4e7b2a5234e709d61959202959c99bf372987aba74db95ed847e7f533d0029",
  "source": "pragma solidity ^0.4.24;\n\nimport \"./Land.sol\";\nimport \"./BidLandBasic.sol\";\n\n/**\n* @title Block42 bid land token contract\n* @author Richard Fu (richardf@block42.world)\n* @dev Complant with OpenZeppelin's implementation of the ERC721 spec, add bid info on top of Land.\n*/\n\ncontract BidLand is Land, BidLandBasic {\n\n  mapping(uint256 => uint256) internal biddingPrice;\n  mapping(uint256 => string) internal names;\n  mapping(uint256 => string) internal descriptions;\n\n  /**\n   * @dev Constructor function, initializes constant strings.\n   */\n  constructor(address _worldAddress) public Land(_worldAddress) {\n  }\n  \n  function setBidPrice(uint32 _worldId, int64 _x, int64 _y, uint256 _biddingPrice) public validPosition(_worldId, _x, _y) onlyAuthorized(_worldId) {\n    uint256 tokenId = encodeTokenId(_worldId, _x, _y);\n    biddingPrice[tokenId] = _biddingPrice;\n  }\n\n  function setInfo(uint32 _worldId, int64 _x, int64 _y, string _name, string _description) public validPosition(_worldId, _x, _y) {\n    uint256 tokenId = encodeTokenId(_worldId, _x, _y);\n    require(msg.sender == ownerOf(tokenId) || msg.sender == worldContract_.ownerOf(_worldId) || msg.sender == owner);\n    names[tokenId] = _name;\n    descriptions[tokenId] = _description;\n  }\n\n  /**\n  * @dev Gets the name of the specified token.\n  */\n  function nameOf(uint256 _tokenId) public view returns (string) {\n    return names[_tokenId];\n  }\n\n  /**\n  * @dev Gets the descripition of the specified token.\n  */\n  function descriptionOf(uint256 _tokenId) public view returns (string) {\n    return descriptions[_tokenId];\n  }\n\n  /**\n  * @dev Gets the info of the specified token.\n  */\n  function infoOf(uint256 _tokenId) public view returns (string, string) {\n    return (names[_tokenId], descriptions[_tokenId]);\n  }\n\n}",
  "sourcePath": "/Users/fur/Projects/Block42/landpot-dapp/contracts/BidLand.sol",
  "compiler": {
    "name": "solc",
    "version": "0.4.24+commit.e67f0147.Emscripten.clang"
  },
  "schemaVersion": "2.0.1",
  "updatedAt": "2018-08-06T07:49:34.558Z"
}