{
  "contractName": "Land",
  "abi": [
    {
      "constant": true,
      "inputs": [
        {
          "name": "_interfaceId",
          "type": "bytes4"
        }
      ],
      "name": "supportsInterface",
      "outputs": [
        {
          "name": "",
          "type": "bool"
        }
      ],
      "payable": false,
      "stateMutability": "view",
      "type": "function"
    },
    {
      "constant": true,
      "inputs": [],
      "name": "name",
      "outputs": [
        {
          "name": "",
          "type": "string"
        }
      ],
      "payable": false,
      "stateMutability": "view",
      "type": "function"
    },
    {
      "constant": true,
      "inputs": [
        {
          "name": "_tokenId",
          "type": "uint256"
        }
      ],
      "name": "getApproved",
      "outputs": [
        {
          "name": "",
          "type": "address"
        }
      ],
      "payable": false,
      "stateMutability": "view",
      "type": "function"
    },
    {
      "constant": false,
      "inputs": [
        {
          "name": "_to",
          "type": "address"
        },
        {
          "name": "_tokenId",
          "type": "uint256"
        }
      ],
      "name": "approve",
      "outputs": [],
      "payable": false,
      "stateMutability": "nonpayable",
      "type": "function"
    },
    {
      "constant": true,
      "inputs": [],
      "name": "totalSupply",
      "outputs": [
        {
          "name": "",
          "type": "uint256"
        }
      ],
      "payable": false,
      "stateMutability": "view",
      "type": "function"
    },
    {
      "constant": true,
      "inputs": [],
      "name": "InterfaceId_ERC165",
      "outputs": [
        {
          "name": "",
          "type": "bytes4"
        }
      ],
      "payable": false,
      "stateMutability": "view",
      "type": "function"
    },
    {
      "constant": false,
      "inputs": [
        {
          "name": "_from",
          "type": "address"
        },
        {
          "name": "_to",
          "type": "address"
        },
        {
          "name": "_tokenId",
          "type": "uint256"
        }
      ],
      "name": "transferFrom",
      "outputs": [],
      "payable": false,
      "stateMutability": "nonpayable",
      "type": "function"
    },
    {
      "constant": true,
      "inputs": [
        {
          "name": "_owner",
          "type": "address"
        },
        {
          "name": "_index",
          "type": "uint256"
        }
      ],
      "name": "tokenOfOwnerByIndex",
      "outputs": [
        {
          "name": "",
          "type": "uint256"
        }
      ],
      "payable": false,
      "stateMutability": "view",
      "type": "function"
    },
    {
      "constant": false,
      "inputs": [],
      "name": "unpause",
      "outputs": [],
      "payable": false,
      "stateMutability": "nonpayable",
      "type": "function"
    },
    {
      "constant": false,
      "inputs": [
        {
          "name": "_from",
          "type": "address"
        },
        {
          "name": "_to",
          "type": "address"
        },
        {
          "name": "_tokenId",
          "type": "uint256"
        }
      ],
      "name": "safeTransferFrom",
      "outputs": [],
      "payable": false,
      "stateMutability": "nonpayable",
      "type": "function"
    },
    {
      "constant": true,
      "inputs": [
        {
          "name": "_index",
          "type": "uint256"
        }
      ],
      "name": "tokenByIndex",
      "outputs": [
        {
          "name": "",
          "type": "uint256"
        }
      ],
      "payable": false,
      "stateMutability": "view",
      "type": "function"
    },
    {
      "constant": true,
      "inputs": [],
      "name": "paused",
      "outputs": [
        {
          "name": "",
          "type": "bool"
        }
      ],
      "payable": false,
      "stateMutability": "view",
      "type": "function"
    },
    {
      "constant": true,
      "inputs": [
        {
          "name": "_owner",
          "type": "address"
        }
      ],
      "name": "balanceOf",
      "outputs": [
        {
          "name": "",
          "type": "uint256"
        }
      ],
      "payable": false,
      "stateMutability": "view",
      "type": "function"
    },
    {
      "constant": false,
      "inputs": [],
      "name": "renounceOwnership",
      "outputs": [],
      "payable": false,
      "stateMutability": "nonpayable",
      "type": "function"
    },
    {
      "constant": false,
      "inputs": [],
      "name": "pause",
      "outputs": [],
      "payable": false,
      "stateMutability": "nonpayable",
      "type": "function"
    },
    {
      "constant": true,
      "inputs": [],
      "name": "owner",
      "outputs": [
        {
          "name": "",
          "type": "address"
        }
      ],
      "payable": false,
      "stateMutability": "view",
      "type": "function"
    },
    {
      "constant": true,
      "inputs": [],
      "name": "symbol",
      "outputs": [
        {
          "name": "",
          "type": "string"
        }
      ],
      "payable": false,
      "stateMutability": "view",
      "type": "function"
    },
    {
      "constant": false,
      "inputs": [
        {
          "name": "_to",
          "type": "address"
        },
        {
          "name": "_approved",
          "type": "bool"
        }
      ],
      "name": "setApprovalForAll",
      "outputs": [],
      "payable": false,
      "stateMutability": "nonpayable",
      "type": "function"
    },
    {
      "constant": false,
      "inputs": [
        {
          "name": "_from",
          "type": "address"
        },
        {
          "name": "_to",
          "type": "address"
        },
        {
          "name": "_tokenId",
          "type": "uint256"
        },
        {
          "name": "_data",
          "type": "bytes"
        }
      ],
      "name": "safeTransferFrom",
      "outputs": [],
      "payable": false,
      "stateMutability": "nonpayable",
      "type": "function"
    },
    {
      "constant": true,
      "inputs": [
        {
          "name": "_owner",
          "type": "address"
        },
        {
          "name": "_operator",
          "type": "address"
        }
      ],
      "name": "isApprovedForAll",
      "outputs": [
        {
          "name": "",
          "type": "bool"
        }
      ],
      "payable": false,
      "stateMutability": "view",
      "type": "function"
    },
    {
      "constant": true,
      "inputs": [],
      "name": "baseURI_",
      "outputs": [
        {
          "name": "",
          "type": "string"
        }
      ],
      "payable": false,
      "stateMutability": "view",
      "type": "function"
    },
    {
      "constant": false,
      "inputs": [
        {
          "name": "_newOwner",
          "type": "address"
        }
      ],
      "name": "transferOwnership",
      "outputs": [],
      "payable": false,
      "stateMutability": "nonpayable",
      "type": "function"
    },
    {
      "inputs": [
        {
          "name": "_worldAddress",
          "type": "address"
        }
      ],
      "payable": false,
      "stateMutability": "nonpayable",
      "type": "constructor"
    },
    {
      "payable": true,
      "stateMutability": "payable",
      "type": "fallback"
    },
    {
      "anonymous": false,
      "inputs": [
        {
          "indexed": true,
          "name": "_world",
          "type": "uint32"
        },
        {
          "indexed": true,
          "name": "_x",
          "type": "int64"
        },
        {
          "indexed": true,
          "name": "_y",
          "type": "int64"
        }
      ],
      "name": "Create",
      "type": "event"
    },
    {
      "anonymous": false,
      "inputs": [],
      "name": "Pause",
      "type": "event"
    },
    {
      "anonymous": false,
      "inputs": [],
      "name": "Unpause",
      "type": "event"
    },
    {
      "anonymous": false,
      "inputs": [
        {
          "indexed": true,
          "name": "previousOwner",
          "type": "address"
        }
      ],
      "name": "OwnershipRenounced",
      "type": "event"
    },
    {
      "anonymous": false,
      "inputs": [
        {
          "indexed": true,
          "name": "previousOwner",
          "type": "address"
        },
        {
          "indexed": true,
          "name": "newOwner",
          "type": "address"
        }
      ],
      "name": "OwnershipTransferred",
      "type": "event"
    },
    {
      "anonymous": false,
      "inputs": [
        {
          "indexed": true,
          "name": "_from",
          "type": "address"
        },
        {
          "indexed": true,
          "name": "_to",
          "type": "address"
        },
        {
          "indexed": true,
          "name": "_tokenId",
          "type": "uint256"
        }
      ],
      "name": "Transfer",
      "type": "event"
    },
    {
      "anonymous": false,
      "inputs": [
        {
          "indexed": true,
          "name": "_owner",
          "type": "address"
        },
        {
          "indexed": true,
          "name": "_approved",
          "type": "address"
        },
        {
          "indexed": true,
          "name": "_tokenId",
          "type": "uint256"
        }
      ],
      "name": "Approval",
      "type": "event"
    },
    {
      "anonymous": false,
      "inputs": [
        {
          "indexed": true,
          "name": "_owner",
          "type": "address"
        },
        {
          "indexed": true,
          "name": "_operator",
          "type": "address"
        },
        {
          "indexed": false,
          "name": "_approved",
          "type": "bool"
        }
      ],
      "name": "ApprovalForAll",
      "type": "event"
    },
    {
      "constant": false,
      "inputs": [
        {
          "name": "recipient",
          "type": "address"
        }
      ],
      "name": "authorize",
      "outputs": [],
      "payable": false,
      "stateMutability": "nonpayable",
      "type": "function"
    },
    {
      "constant": true,
      "inputs": [
        {
          "name": "_worldId",
          "type": "uint32"
        },
        {
          "name": "_x",
          "type": "int64"
        },
        {
          "name": "_y",
          "type": "int64"
        }
      ],
      "name": "encodeTokenId",
      "outputs": [
        {
          "name": "",
          "type": "uint256"
        }
      ],
      "payable": false,
      "stateMutability": "pure",
      "type": "function"
    },
    {
      "constant": true,
      "inputs": [
        {
          "name": "_tokenId",
          "type": "uint256"
        }
      ],
      "name": "decodeTokenId",
      "outputs": [
        {
          "name": "_worldId",
          "type": "uint32"
        },
        {
          "name": "_x",
          "type": "int64"
        },
        {
          "name": "_y",
          "type": "int64"
        }
      ],
      "payable": false,
      "stateMutability": "pure",
      "type": "function"
    },
    {
      "constant": true,
      "inputs": [
        {
          "name": "_tokenId",
          "type": "uint256"
        }
      ],
      "name": "ownerOf",
      "outputs": [
        {
          "name": "",
          "type": "address"
        }
      ],
      "payable": false,
      "stateMutability": "view",
      "type": "function"
    },
    {
      "constant": true,
      "inputs": [
        {
          "name": "_worldId",
          "type": "uint32"
        },
        {
          "name": "_x",
          "type": "int64"
        },
        {
          "name": "_y",
          "type": "int64"
        }
      ],
      "name": "ownerOf",
      "outputs": [
        {
          "name": "",
          "type": "address"
        }
      ],
      "payable": false,
      "stateMutability": "view",
      "type": "function"
    },
    {
      "constant": true,
      "inputs": [
        {
          "name": "_worldId",
          "type": "uint32"
        },
        {
          "name": "_x",
          "type": "int64"
        },
        {
          "name": "_y",
          "type": "int64"
        }
      ],
      "name": "exists",
      "outputs": [
        {
          "name": "",
          "type": "bool"
        }
      ],
      "payable": false,
      "stateMutability": "view",
      "type": "function"
    },
    {
      "constant": true,
      "inputs": [
        {
          "name": "_tokenId",
          "type": "uint256"
        }
      ],
      "name": "exists",
      "outputs": [
        {
          "name": "",
          "type": "bool"
        }
      ],
      "payable": false,
      "stateMutability": "view",
      "type": "function"
    },
    {
      "constant": true,
      "inputs": [
        {
          "name": "_worldId",
          "type": "uint32"
        },
        {
          "name": "_owner",
          "type": "address"
        }
      ],
      "name": "landsOf",
      "outputs": [
        {
          "name": "",
          "type": "int64[]"
        },
        {
          "name": "",
          "type": "int64[]"
        }
      ],
      "payable": false,
      "stateMutability": "view",
      "type": "function"
    },
    {
      "constant": true,
      "inputs": [
        {
          "name": "_owner",
          "type": "address"
        }
      ],
      "name": "landsOf",
      "outputs": [
        {
          "name": "",
          "type": "uint32[]"
        },
        {
          "name": "",
          "type": "int64[]"
        },
        {
          "name": "",
          "type": "int64[]"
        }
      ],
      "payable": false,
      "stateMutability": "view",
      "type": "function"
    },
    {
      "constant": false,
      "inputs": [
        {
          "name": "_to",
          "type": "address"
        },
        {
          "name": "_worldId",
          "type": "uint32"
        },
        {
          "name": "_x",
          "type": "int64"
        },
        {
          "name": "_y",
          "type": "int64"
        }
      ],
      "name": "createAndTransfer",
      "outputs": [],
      "payable": false,
      "stateMutability": "nonpayable",
      "type": "function"
    },
    {
      "constant": false,
      "inputs": [
        {
          "name": "_worldId",
          "type": "uint32"
        },
        {
          "name": "_x",
          "type": "int64"
        },
        {
          "name": "_y",
          "type": "int64"
        }
      ],
      "name": "create",
      "outputs": [],
      "payable": false,
      "stateMutability": "nonpayable",
      "type": "function"
    },
    {
      "constant": false,
      "inputs": [
        {
          "name": "_worldId",
          "type": "uint32"
        },
        {
          "name": "_xs",
          "type": "int64[]"
        },
        {
          "name": "_ys",
          "type": "int64[]"
        }
      ],
      "name": "create",
      "outputs": [],
      "payable": false,
      "stateMutability": "nonpayable",
      "type": "function"
    },
    {
      "constant": false,
      "inputs": [
        {
          "name": "_worldId",
          "type": "uint32"
        },
        {
          "name": "_x",
          "type": "int64"
        },
        {
          "name": "_y",
          "type": "int64"
        }
      ],
      "name": "detroy",
      "outputs": [],
      "payable": false,
      "stateMutability": "nonpayable",
      "type": "function"
    },
    {
      "constant": true,
      "inputs": [
        {
          "name": "_checkWorld",
          "type": "uint32"
        }
      ],
      "name": "allLands",
      "outputs": [
        {
          "name": "xs",
          "type": "int64[]"
        },
        {
          "name": "ys",
          "type": "int64[]"
        },
        {
          "name": "owners",
          "type": "address[]"
        }
      ],
      "payable": false,
      "stateMutability": "view",
      "type": "function"
    },
    {
      "constant": false,
      "inputs": [
        {
          "name": "_baseURI",
          "type": "string"
        }
      ],
      "name": "setBaseURI",
      "outputs": [],
      "payable": false,
      "stateMutability": "nonpayable",
      "type": "function"
    },
    {
      "constant": true,
      "inputs": [
        {
          "name": "_worldId",
          "type": "uint32"
        },
        {
          "name": "_x",
          "type": "int64"
        },
        {
          "name": "_y",
          "type": "int64"
        }
      ],
      "name": "tokenURI",
      "outputs": [
        {
          "name": "",
          "type": "string"
        }
      ],
      "payable": false,
      "stateMutability": "view",
      "type": "function"
    },
    {
      "constant": true,
      "inputs": [
        {
          "name": "_tokenId",
          "type": "uint256"
        }
      ],
      "name": "tokenURI",
      "outputs": [
        {
          "name": "",
          "type": "string"
        }
      ],
      "payable": false,
      "stateMutability": "view",
      "type": "function"
    }
  ],
  "bytecode": "0x60806040526000600c60146101000a81548160ff0219169083151502179055506040805190810160405280601f81526020017f687474703a2f2f6170692e626c6f636b34322e776f726c642f6c616e64732f00815250600f90805190602001906200006c929190620003b6565b503480156200007a57600080fd5b5060405160208062004943833981018060405281019080805190602001909291905050506040805190810160405280600c81526020017f426c6f636b3432204c616e6400000000000000000000000000000000000000008152506040805190810160405280600581526020017f4234324c44000000000000000000000000000000000000000000000000000000815250620001476301ffc9a77c010000000000000000000000000000000000000000000000000000000002620002f8640100000000026401000000009004565b620001846380ac58cd7c010000000000000000000000000000000000000000000000000000000002620002f8640100000000026401000000009004565b620001c1634f558e797c010000000000000000000000000000000000000000000000000000000002620002f8640100000000026401000000009004565b8160059080519060200190620001d9929190620003b6565b508060069080519060200190620001f2929190620003b6565b506200023063780e9d637c010000000000000000000000000000000000000000000000000000000002620002f8640100000000026401000000009004565b6200026d635b5e139f7c010000000000000000000000000000000000000000000000000000000002620002f8640100000000026401000000009004565b505033600c60006101000a81548173ffffffffffffffffffffffffffffffffffffffff021916908373ffffffffffffffffffffffffffffffffffffffff16021790555080600d60006101000a81548173ffffffffffffffffffffffffffffffffffffffff021916908373ffffffffffffffffffffffffffffffffffffffff1602179055505062000465565b63ffffffff7c010000000000000000000000000000000000000000000000000000000002817bffffffffffffffffffffffffffffffffffffffffffffffffffffffff1916141515156200034a57600080fd5b6001600080837bffffffffffffffffffffffffffffffffffffffffffffffffffffffff19167bffffffffffffffffffffffffffffffffffffffffffffffffffffffff1916815260200190815260200160002060006101000a81548160ff02191690831515021790555050565b828054600181600116156101000203166002900490600052602060002090601f016020900481019282601f10620003f957805160ff19168380011785556200042a565b828001600101855582156200042a579182015b82811115620004295782518255916020019190600101906200040c565b5b5090506200043991906200043d565b5090565b6200046291905b808211156200045e57600081600090555060010162000444565b5090565b90565b6144ce80620004756000396000f3006080604052600436106101e3576000357c0100000000000000000000000000000000000000000000000000000000900463ffffffff16806301ffc9a7146101e857806306fdde031461024c578063081812fc146102dc578063095ea7b3146103495780630ee7a1fd1461039657806318160ddd146103fb57806319fa8f501461042657806323b872dd1461048f5780632f745c59146104fc5780633f4ba83a1461055d57806342842e0e146105745780634f558e79146105e15780634f6ccce71461062657806355f804b3146106675780635c975abb146106d05780635e89bcfd146106ff5780636352211e146107c5578063661a54991461083257806370a082311461087f578063715018a6146108d65780637eb30c87146108ed5780637efd91121461097a5780638456cb59146109e15780638da5cb5b146109f857806395d89b4114610a4f5780639805d7d214610adf5780639c441cd514610c075780639e46116414610cc0578063a22cb46514610d0d578063a71c08ab14610d5c578063b462069b14610dc9578063b6a5d7de14610ee1578063b88d4fde14610f24578063c87b56dd14610fd7578063c9fe6f5a1461107d578063e985e9c5146110de578063f259a29e14611159578063f2fde38b146111e9578063f628302c1461122c575b600080fd5b3480156101f457600080fd5b5061023260048036038101908080357bffffffffffffffffffffffffffffffffffffffffffffffffffffffff1916906020019092919050505061131c565b604051808215151515815260200191505060405180910390f35b34801561025857600080fd5b50610261611383565b6040518080602001828103825283818151815260200191508051906020019080838360005b838110156102a1578082015181840152602081019050610286565b50505050905090810190601f1680156102ce5780820380516001836020036101000a031916815260200191505b509250505060405180910390f35b3480156102e857600080fd5b5061030760048036038101908080359060200190929190505050611425565b604051808273ffffffffffffffffffffffffffffffffffffffff1673ffffffffffffffffffffffffffffffffffffffff16815260200191505060405180910390f35b34801561035557600080fd5b50610394600480360381019080803573ffffffffffffffffffffffffffffffffffffffff16906020019092919080359060200190929190505050611462565b005b3480156103a257600080fd5b506103e1600480360381019080803563ffffffff169060200190929190803560070b9060200190929190803560070b90602001909291905050506115a7565b604051808215151515815260200191505060405180910390f35b34801561040757600080fd5b506104106115c5565b6040518082815260200191505060405180910390f35b34801561043257600080fd5b5061043b6115d2565b60405180827bffffffffffffffffffffffffffffffffffffffffffffffffffffffff19167bffffffffffffffffffffffffffffffffffffffffffffffffffffffff1916815260200191505060405180910390f35b34801561049b57600080fd5b506104fa600480360381019080803573ffffffffffffffffffffffffffffffffffffffff169060200190929190803573ffffffffffffffffffffffffffffffffffffffff169060200190929190803590602001909291905050506115f9565b005b34801561050857600080fd5b50610547600480360381019080803573ffffffffffffffffffffffffffffffffffffffff16906020019092919080359060200190929190505050611706565b6040518082815260200191505060405180910390f35b34801561056957600080fd5b5061057261177d565b005b34801561058057600080fd5b506105df600480360381019080803573ffffffffffffffffffffffffffffffffffffffff169060200190929190803573ffffffffffffffffffffffffffffffffffffffff1690602001909291908035906020019092919050505061183d565b005b3480156105ed57600080fd5b5061060c60048036038101908080359060200190929190505050611875565b604051808215151515815260200191505060405180910390f35b34801561063257600080fd5b50610651600480360381019080803590602001909291905050506118e7565b6040518082815260200191505060405180910390f35b34801561067357600080fd5b506106ce600480360381019080803590602001908201803590602001908080601f016020809104026020016040519081016040528093929190818152602001838380828437820191505050505050919291929050505061191f565b005b3480156106dc57600080fd5b506106e5611995565b604051808215151515815260200191505060405180910390f35b34801561070b57600080fd5b5061074a600480360381019080803563ffffffff169060200190929190803560070b9060200190929190803560070b90602001909291905050506119a8565b6040518080602001828103825283818151815260200191508051906020019080838360005b8381101561078a57808201518184015260208101905061076f565b50505050905090810190601f1680156107b75780820380516001836020036101000a031916815260200191505b509250505060405180910390f35b3480156107d157600080fd5b506107f0600480360381019080803590602001909291905050506119c6565b604051808273ffffffffffffffffffffffffffffffffffffffff1673ffffffffffffffffffffffffffffffffffffffff16815260200191505060405180910390f35b34801561083e57600080fd5b5061087d600480360381019080803563ffffffff169060200190929190803560070b9060200190929190803560070b9060200190929190505050611a44565b005b34801561088b57600080fd5b506108c0600480360381019080803573ffffffffffffffffffffffffffffffffffffffff169060200190929190505050611c2a565b6040518082815260200191505060405180910390f35b3480156108e257600080fd5b506108eb611cae565b005b3480156108f957600080fd5b50610938600480360381019080803563ffffffff169060200190929190803560070b9060200190929190803560070b9060200190929190505050611db3565b604051808273ffffffffffffffffffffffffffffffffffffffff1673ffffffffffffffffffffffffffffffffffffffff16815260200191505060405180910390f35b34801561098657600080fd5b506109a560048036038101908080359060200190929190505050611dd1565b604051808463ffffffff1663ffffffff1681526020018360070b60070b81526020018260070b60070b8152602001935050505060405180910390f35b3480156109ed57600080fd5b506109f6611e65565b005b348015610a0457600080fd5b50610a0d611f26565b604051808273ffffffffffffffffffffffffffffffffffffffff1673ffffffffffffffffffffffffffffffffffffffff16815260200191505060405180910390f35b348015610a5b57600080fd5b50610a64611f4c565b6040518080602001828103825283818151815260200191508051906020019080838360005b83811015610aa4578082015181840152602081019050610a89565b50505050905090810190601f168015610ad15780820380516001836020036101000a031916815260200191505b509250505060405180910390f35b348015610aeb57600080fd5b50610b20600480360381019080803573ffffffffffffffffffffffffffffffffffffffff169060200190929190505050611fee565b60405180806020018060200180602001848103845287818151815260200191508051906020019060200280838360005b83811015610b6b578082015181840152602081019050610b50565b50505050905001848103835286818151815260200191508051906020019060200280838360005b83811015610bad578082015181840152602081019050610b92565b50505050905001848103825285818151815260200191508051906020019060200280838360005b83811015610bef578082015181840152602081019050610bd4565b50505050905001965050505050505060405180910390f35b348015610c1357600080fd5b50610cbe600480360381019080803563ffffffff16906020019092919080359060200190820180359060200190808060200260200160405190810160405280939291908181526020018383602002808284378201915050505050509192919290803590602001908201803590602001908080602002602001604051908101604052809392919081815260200183836020028082843782019150505050505091929192905050506121ed565b005b348015610ccc57600080fd5b50610d0b600480360381019080803563ffffffff169060200190929190803560070b9060200190929190803560070b9060200190929190505050612441565b005b348015610d1957600080fd5b50610d5a600480360381019080803573ffffffffffffffffffffffffffffffffffffffff16906020019092919080351515906020019092919050505061264a565b005b348015610d6857600080fd5b50610dc7600480360381019080803573ffffffffffffffffffffffffffffffffffffffff169060200190929190803563ffffffff169060200190929190803560070b9060200190929190803560070b9060200190929190505050612786565b005b348015610dd557600080fd5b50610dfa600480360381019080803563ffffffff1690602001909291905050506129b6565b60405180806020018060200180602001848103845287818151815260200191508051906020019060200280838360005b83811015610e45578082015181840152602081019050610e2a565b50505050905001848103835286818151815260200191508051906020019060200280838360005b83811015610e87578082015181840152602081019050610e6c565b50505050905001848103825285818151815260200191508051906020019060200280838360005b83811015610ec9578082015181840152602081019050610eae565b50505050905001965050505050505060405180910390f35b348015610eed57600080fd5b50610f22600480360381019080803573ffffffffffffffffffffffffffffffffffffffff169060200190929190505050612b70565b005b348015610f3057600080fd5b50610fd5600480360381019080803573ffffffffffffffffffffffffffffffffffffffff169060200190929190803573ffffffffffffffffffffffffffffffffffffffff16906020019092919080359060200190929190803590602001908201803590602001908080601f0160208091040260200160405190810160405280939291908181526020018383808284378201915050505050509192919290505050612cbd565b005b348015610fe357600080fd5b5061100260048036038101908080359060200190929190505050612cfc565b6040518080602001828103825283818151815260200191508051906020019080838360005b83811015611042578082015181840152602081019050611027565b50505050905090810190601f16801561106f5780820380516001836020036101000a031916815260200191505b509250505060405180910390f35b34801561108957600080fd5b506110c8600480360381019080803563ffffffff169060200190929190803560070b9060200190929190803560070b9060200190929190505050612fbd565b6040518082815260200191505060405180910390f35b3480156110ea57600080fd5b5061113f600480360381019080803573ffffffffffffffffffffffffffffffffffffffff169060200190929190803573ffffffffffffffffffffffffffffffffffffffff169060200190929190505050613075565b604051808215151515815260200191505060405180910390f35b34801561116557600080fd5b5061116e613109565b6040518080602001828103825283818151815260200191508051906020019080838360005b838110156111ae578082015181840152602081019050611193565b50505050905090810190601f1680156111db5780820380516001836020036101000a031916815260200191505b509250505060405180910390f35b3480156111f557600080fd5b5061122a600480360381019080803573ffffffffffffffffffffffffffffffffffffffff1690602001909291905050506131a7565b005b34801561123857600080fd5b5061127d600480360381019080803563ffffffff169060200190929190803573ffffffffffffffffffffffffffffffffffffffff16906020019092919050505061320f565b604051808060200180602001838103835285818151815260200191508051906020019060200280838360005b838110156112c45780820151818401526020810190506112a9565b50505050905001838103825284818151815260200191508051906020019060200280838360005b838110156113065780820151818401526020810190506112eb565b5050505090500194505050505060405180910390f35b6000806000837bffffffffffffffffffffffffffffffffffffffffffffffffffffffff19167bffffffffffffffffffffffffffffffffffffffffffffffffffffffff1916815260200190815260200160002060009054906101000a900460ff169050919050565b606060058054600181600116156101000203166002900480601f01602080910402602001604051908101604052809291908181526020018280546001816001161561010002031660029004801561141b5780601f106113f05761010080835404028352916020019161141b565b820191906000526020600020905b8154815290600101906020018083116113fe57829003601f168201915b5050505050905090565b60006002600083815260200190815260200160002060009054906101000a900473ffffffffffffffffffffffffffffffffffffffff169050919050565b600061146d826119c6565b90508073ffffffffffffffffffffffffffffffffffffffff168373ffffffffffffffffffffffffffffffffffffffff16141515156114aa57600080fd5b8073ffffffffffffffffffffffffffffffffffffffff163373ffffffffffffffffffffffffffffffffffffffff1614806114ea57506114e98133613075565b5b15156114f557600080fd5b826002600084815260200190815260200160002060006101000a81548173ffffffffffffffffffffffffffffffffffffffff021916908373ffffffffffffffffffffffffffffffffffffffff160217905550818373ffffffffffffffffffffffffffffffffffffffff168273ffffffffffffffffffffffffffffffffffffffff167f8c5be1e5ebec7d5bd14f71427d1e84f3dd0314c0f7b2291e5b200ac8c7c3b92560405160405180910390a4505050565b60006115bc6115b7858585612fbd565b611875565b90509392505050565b6000600980549050905090565b6301ffc9a77c01000000000000000000000000000000000000000000000000000000000281565b8061160433826133be565b151561160f57600080fd5b600073ffffffffffffffffffffffffffffffffffffffff168473ffffffffffffffffffffffffffffffffffffffff161415151561164b57600080fd5b600073ffffffffffffffffffffffffffffffffffffffff168373ffffffffffffffffffffffffffffffffffffffff161415151561168757600080fd5b6116918483613453565b61169b8483613556565b6116a5838361376e565b818373ffffffffffffffffffffffffffffffffffffffff168573ffffffffffffffffffffffffffffffffffffffff167fddf252ad1be2c89b69c2b068fc378daa952ba7f163c4a11628f55a4df523b3ef60405160405180910390a450505050565b600061171183611c2a565b8210151561171e57600080fd5b600760008473ffffffffffffffffffffffffffffffffffffffff1673ffffffffffffffffffffffffffffffffffffffff1681526020019081526020016000208281548110151561176a57fe5b9060005260206000200154905092915050565b600c60009054906101000a900473ffffffffffffffffffffffffffffffffffffffff1673ffffffffffffffffffffffffffffffffffffffff163373ffffffffffffffffffffffffffffffffffffffff161415156117d957600080fd5b600c60149054906101000a900460ff1615156117f457600080fd5b6000600c60146101000a81548160ff0219169083151502179055507f7805862f689e2f13df9f062ff482ad3ad112aca9e0847911ed832e158c525b3360405160405180910390a1565b8061184833826133be565b151561185357600080fd5b61186f8484846020604051908101604052806000815250612cbd565b50505050565b6000806001600084815260200190815260200160002060009054906101000a900473ffffffffffffffffffffffffffffffffffffffff169050600073ffffffffffffffffffffffffffffffffffffffff168173ffffffffffffffffffffffffffffffffffffffff161415915050919050565b60006118f16115c5565b821015156118fe57600080fd5b60098281548110151561190d57fe5b90600052602060002001549050919050565b600c60009054906101000a900473ffffffffffffffffffffffffffffffffffffffff1673ffffffffffffffffffffffffffffffffffffffff163373ffffffffffffffffffffffffffffffffffffffff1614151561197b57600080fd5b80600f9080519060200190611991929190614389565b5050565b600c60149054906101000a900460ff1681565b60606119bd6119b8858585612fbd565b612cfc565b90509392505050565b6000806001600084815260200190815260200160002060009054906101000a900473ffffffffffffffffffffffffffffffffffffffff169050600073ffffffffffffffffffffffffffffffffffffffff168173ffffffffffffffffffffffffffffffffffffffff1614151515611a3b57600080fd5b80915050919050565b82600d60009054906101000a900473ffffffffffffffffffffffffffffffffffffffff1673ffffffffffffffffffffffffffffffffffffffff16636352211e826040518263ffffffff167c0100000000000000000000000000000000000000000000000000000000028152600401808263ffffffff168152602001915050602060405180830381600087803b158015611adc57600080fd5b505af1158015611af0573d6000803e3d6000fd5b505050506040513d6020811015611b0657600080fd5b810190808051906020019092919050505073ffffffffffffffffffffffffffffffffffffffff163373ffffffffffffffffffffffffffffffffffffffff161480611b9d5750600c60009054906101000a900473ffffffffffffffffffffffffffffffffffffffff1673ffffffffffffffffffffffffffffffffffffffff163373ffffffffffffffffffffffffffffffffffffffff16145b80611bf15750600e60003373ffffffffffffffffffffffffffffffffffffffff1673ffffffffffffffffffffffffffffffffffffffff16815260200190815260200160002060009054906101000a900460ff165b1515611bfc57600080fd5b838383611c0a838383613845565b1515611c1557600080fd5b611c2133888888612786565b50505050505050565b60008073ffffffffffffffffffffffffffffffffffffffff168273ffffffffffffffffffffffffffffffffffffffff1614151515611c6757600080fd5b600360008373ffffffffffffffffffffffffffffffffffffffff1673ffffffffffffffffffffffffffffffffffffffff168152602001908152602001600020549050919050565b600c60009054906101000a900473ffffffffffffffffffffffffffffffffffffffff1673ffffffffffffffffffffffffffffffffffffffff163373ffffffffffffffffffffffffffffffffffffffff16141515611d0a57600080fd5b600c60009054906101000a900473ffffffffffffffffffffffffffffffffffffffff1673ffffffffffffffffffffffffffffffffffffffff167ff8df31144d9c2f0f6b59d69b8b98abd5459d07f2742c4df920b25aae33c6482060405160405180910390a26000600c60006101000a81548173ffffffffffffffffffffffffffffffffffffffff021916908373ffffffffffffffffffffffffffffffffffffffff160217905550565b6000611dc8611dc3858585612fbd565b6119c6565b90509392505050565b600080600060e07fffffffff0000000000000000000000000000000000000000000000000000000085169060020a900460ff16925060707bffffffffffffffffffffffffffff000000000000000000000000000085169060020a900460030b91506dffffffffffffffffffffffffffff841660030b9050611e53838383613845565b1515611e5e57600080fd5b9193909250565b600c60009054906101000a900473ffffffffffffffffffffffffffffffffffffffff1673ffffffffffffffffffffffffffffffffffffffff163373ffffffffffffffffffffffffffffffffffffffff16141515611ec157600080fd5b600c60149054906101000a900460ff16151515611edd57600080fd5b6001600c60146101000a81548160ff0219169083151502179055507f6985a02210a168e66602d3235cb6db0e70f92b3ba4d376a33c0f3d9434bff62560405160405180910390a1565b600c60009054906101000a900473ffffffffffffffffffffffffffffffffffffffff1681565b606060068054600181600116156101000203166002900480601f016020809104026020016040519081016040528092919081815260200182805460018160011615610100020316600290048015611fe45780601f10611fb957610100808354040283529160200191611fe4565b820191906000526020600020905b815481529060010190602001808311611fc757829003601f168201915b5050505050905090565b606080606060006060806060600080600080600760008d73ffffffffffffffffffffffffffffffffffffffff1673ffffffffffffffffffffffffffffffffffffffff168152602001908152602001600020805490509750876040519080825280602002602001820160405280156120745781602001602082028038833980820191505090505b509650876040519080825280602002602001820160405280156120a65781602001602082028038833980820191505090505b509550876040519080825280602002602001820160405280156120d85781602001602082028038833980820191505090505b509450600090505b878110156121d557612147600760008e73ffffffffffffffffffffffffffffffffffffffff1673ffffffffffffffffffffffffffffffffffffffff1681526020019081526020016000208281548110151561213757fe5b9060005260206000200154611dd1565b80945081955082965050505083878281518110151561216257fe5b9060200190602002019063ffffffff16908163ffffffff168152505082868281518110151561218d57fe5b9060200190602002019060070b908160070b815250508185828151811015156121b257fe5b9060200190602002019060070b908160070b8152505080806001019150506120e0565b8686869a509a509a5050505050505050509193909250565b600083600d60009054906101000a900473ffffffffffffffffffffffffffffffffffffffff1673ffffffffffffffffffffffffffffffffffffffff16636352211e826040518263ffffffff167c0100000000000000000000000000000000000000000000000000000000028152600401808263ffffffff168152602001915050602060405180830381600087803b15801561228757600080fd5b505af115801561229b573d6000803e3d6000fd5b505050506040513d60208110156122b157600080fd5b810190808051906020019092919050505073ffffffffffffffffffffffffffffffffffffffff163373ffffffffffffffffffffffffffffffffffffffff1614806123485750600c60009054906101000a900473ffffffffffffffffffffffffffffffffffffffff1673ffffffffffffffffffffffffffffffffffffffff163373ffffffffffffffffffffffffffffffffffffffff16145b8061239c5750600e60003373ffffffffffffffffffffffffffffffffffffffff1673ffffffffffffffffffffffffffffffffffffffff16815260200190815260200160002060009054906101000a900460ff165b15156123a757600080fd5b600091505b835182101561243a576123ee8585848151811015156123c757fe5b9060200190602002015185858151811015156123df57fe5b90602001906020020151613845565b1561242d5761242c85858481518110151561240557fe5b90602001906020020151858581518110151561241d57fe5b90602001906020020151611a44565b5b81806001019250506123ac565b5050505050565b600083600d60009054906101000a900473ffffffffffffffffffffffffffffffffffffffff1673ffffffffffffffffffffffffffffffffffffffff16636352211e826040518263ffffffff167c0100000000000000000000000000000000000000000000000000000000028152600401808263ffffffff168152602001915050602060405180830381600087803b1580156124db57600080fd5b505af11580156124ef573d6000803e3d6000fd5b505050506040513d602081101561250557600080fd5b810190808051906020019092919050505073ffffffffffffffffffffffffffffffffffffffff163373ffffffffffffffffffffffffffffffffffffffff16148061259c5750600c60009054906101000a900473ffffffffffffffffffffffffffffffffffffffff1673ffffffffffffffffffffffffffffffffffffffff163373ffffffffffffffffffffffffffffffffffffffff16145b806125f05750600e60003373ffffffffffffffffffffffffffffffffffffffff1673ffffffffffffffffffffffffffffffffffffffff16815260200190815260200160002060009054906101000a900460ff165b15156125fb57600080fd5b848484612609838383613845565b151561261457600080fd5b61261f888888612fbd565b945061262b33866133be565b151561263657600080fd5b61264033866138f1565b5050505050505050565b3373ffffffffffffffffffffffffffffffffffffffff168273ffffffffffffffffffffffffffffffffffffffff161415151561268557600080fd5b80600460003373ffffffffffffffffffffffffffffffffffffffff1673ffffffffffffffffffffffffffffffffffffffff16815260200190815260200160002060008473ffffffffffffffffffffffffffffffffffffffff1673ffffffffffffffffffffffffffffffffffffffff16815260200190815260200160002060006101000a81548160ff0219169083151502179055508173ffffffffffffffffffffffffffffffffffffffff163373ffffffffffffffffffffffffffffffffffffffff167f17307eab39ab6107e8899845ad3d59bd9653f200f220920489ca2b5937696c3183604051808215151515815260200191505060405180910390a35050565b600083600d60009054906101000a900473ffffffffffffffffffffffffffffffffffffffff1673ffffffffffffffffffffffffffffffffffffffff16636352211e826040518263ffffffff167c0100000000000000000000000000000000000000000000000000000000028152600401808263ffffffff168152602001915050602060405180830381600087803b15801561282057600080fd5b505af1158015612834573d6000803e3d6000fd5b505050506040513d602081101561284a57600080fd5b810190808051906020019092919050505073ffffffffffffffffffffffffffffffffffffffff163373ffffffffffffffffffffffffffffffffffffffff1614806128e15750600c60009054906101000a900473ffffffffffffffffffffffffffffffffffffffff1673ffffffffffffffffffffffffffffffffffffffff163373ffffffffffffffffffffffffffffffffffffffff16145b806129355750600e60003373ffffffffffffffffffffffffffffffffffffffff1673ffffffffffffffffffffffffffffffffffffffff16815260200190815260200160002060009054906101000a900460ff165b151561294057600080fd5b84848461294e838383613845565b151561295957600080fd5b612964888888612fbd565b94506129708986613a29565b8560070b8760070b8963ffffffff167f9d6d15eabb5704581b04daa979ebafef52e5299c0d3d59a30c91c4dd81adb45060405160405180910390a4505050505050505050565b606080606060008060008060006009805490506040519080825280602002602001820160405280156129f75781602001602082028038833980820191505090505b509750600980549050604051908082528060200260200182016040528015612a2e5781602001602082028038833980820191505090505b509650600980549050604051908082528060200260200182016040528015612a655781602001602082028038833980820191505090505b509550600094505b600980549050851015612b6457600985815481101515612a8957fe5b90600052602060002001549350612a9f84611dd1565b9250925092508263ffffffff168963ffffffff161415612b5757818886815181101515612ac857fe5b9060200190602002019060070b908160070b81525050808786815181101515612aed57fe5b9060200190602002019060070b908160070b81525050612b0c846119c6565b8686815181101515612b1a57fe5b9060200190602002019073ffffffffffffffffffffffffffffffffffffffff16908173ffffffffffffffffffffffffffffffffffffffff16815250505b8480600101955050612a6d565b50505050509193909250565b600c60009054906101000a900473ffffffffffffffffffffffffffffffffffffffff1673ffffffffffffffffffffffffffffffffffffffff163373ffffffffffffffffffffffffffffffffffffffff16141515612bcc57600080fd5b600073ffffffffffffffffffffffffffffffffffffffff168173ffffffffffffffffffffffffffffffffffffffff1614158015612c575750600c60009054906101000a900473ffffffffffffffffffffffffffffffffffffffff1673ffffffffffffffffffffffffffffffffffffffff168173ffffffffffffffffffffffffffffffffffffffff1614155b1515612c6257600080fd5b6001600e60008373ffffffffffffffffffffffffffffffffffffffff1673ffffffffffffffffffffffffffffffffffffffff16815260200190815260200160002060006101000a81548160ff02191690831515021790555050565b81612cc833826133be565b1515612cd357600080fd5b612cde8585856115f9565b612cea85858585613a80565b1515612cf557600080fd5b5050505050565b6060806000806000600b60008781526020019081526020016000208054600181600116156101000203166002900480601f016020809104026020016040519081016040528092919081815260200182805460018160011615610100020316600290048015612dab5780601f10612d8057610100808354040283529160200191612dab565b820191906000526020600020905b815481529060010190602001808311612d8e57829003601f168201915b50505050509350600084511415612fb357612dc586611dd1565b925092509250600f612dd684613ca2565b612de28460070b613cba565b612dee8460070b613cba565b6040516020018085805460018160011615610100020316600290048015612e4c5780601f10612e2a576101008083540402835291820191612e4c565b820191906000526020600020905b815481529060010190602001808311612e38575b505084805190602001908083835b602083101515612e7f5780518252602082019150602081019050602083039250612e5a565b6001836020036101000a038019825116818451168082178552505050505050905001807f2f0000000000000000000000000000000000000000000000000000000000000081525060010183805190602001908083835b602083101515612efa5780518252602082019150602081019050602083039250612ed5565b6001836020036101000a038019825116818451168082178552505050505050905001807f2f0000000000000000000000000000000000000000000000000000000000000081525060010182805190602001908083835b602083101515612f755780518252602082019150602081019050602083039250612f50565b6001836020036101000a0380198251168184511680821785525050505050509050019450505050506040516020818303038152906040529450612fb4565b5b50505050919050565b6000838383612fcd838383613845565b1515612fd857600080fd5b6dffffffffffffffffffffffffffff8560070b167bffffffffffffffffffffffffffff00000000000000000000000000006e0100000000000000000000000000008860070b02167fffffffff000000000000000000000000000000000000000000000000000000007c01000000000000000000000000000000000000000000000000000000008a63ffffffff160216171793505050509392505050565b6000600460008473ffffffffffffffffffffffffffffffffffffffff1673ffffffffffffffffffffffffffffffffffffffff16815260200190815260200160002060008373ffffffffffffffffffffffffffffffffffffffff1673ffffffffffffffffffffffffffffffffffffffff16815260200190815260200160002060009054906101000a900460ff16905092915050565b600f8054600181600116156101000203166002900480601f01602080910402602001604051908101604052809291908181526020018280546001816001161561010002031660029004801561319f5780601f106131745761010080835404028352916020019161319f565b820191906000526020600020905b81548152906001019060200180831161318257829003601f168201915b505050505081565b600c60009054906101000a900473ffffffffffffffffffffffffffffffffffffffff1673ffffffffffffffffffffffffffffffffffffffff163373ffffffffffffffffffffffffffffffffffffffff1614151561320357600080fd5b61320c81613ea2565b50565b6060806000606080600080600080600760008b73ffffffffffffffffffffffffffffffffffffffff1673ffffffffffffffffffffffffffffffffffffffff168152602001908152602001600020805490509650866040519080825280602002602001820160405280156132915781602001602082028038833980820191505090505b509550866040519080825280602002602001820160405280156132c35781602001602082028038833980820191505090505b509450600090505b868110156133aa57613332600760008c73ffffffffffffffffffffffffffffffffffffffff1673ffffffffffffffffffffffffffffffffffffffff1681526020019081526020016000208281548110151561332257fe5b9060005260206000200154611dd1565b8094508195508296505050508a63ffffffff168463ffffffff16141561339d5782868281518110151561336157fe5b9060200190602002019060070b908160070b8152505081858281518110151561338657fe5b9060200190602002019060070b908160070b815250505b80806001019150506132cb565b858598509850505050505050509250929050565b6000806133ca836119c6565b90508073ffffffffffffffffffffffffffffffffffffffff168473ffffffffffffffffffffffffffffffffffffffff16148061343957508373ffffffffffffffffffffffffffffffffffffffff1661342184611425565b73ffffffffffffffffffffffffffffffffffffffff16145b8061344a57506134498185613075565b5b91505092915050565b8173ffffffffffffffffffffffffffffffffffffffff16613473826119c6565b73ffffffffffffffffffffffffffffffffffffffff1614151561349557600080fd5b600073ffffffffffffffffffffffffffffffffffffffff166002600083815260200190815260200160002060009054906101000a900473ffffffffffffffffffffffffffffffffffffffff1673ffffffffffffffffffffffffffffffffffffffff161415156135525760006002600083815260200190815260200160002060006101000a81548173ffffffffffffffffffffffffffffffffffffffff021916908373ffffffffffffffffffffffffffffffffffffffff1602179055505b5050565b60008060006135658585613f9e565b600860008581526020019081526020016000205492506135d16001600760008873ffffffffffffffffffffffffffffffffffffffff1673ffffffffffffffffffffffffffffffffffffffff168152602001908152602001600020805490506140cd90919063ffffffff16565b9150600760008673ffffffffffffffffffffffffffffffffffffffff1673ffffffffffffffffffffffffffffffffffffffff1681526020019081526020016000208281548110151561361f57fe5b9060005260206000200154905080600760008773ffffffffffffffffffffffffffffffffffffffff1673ffffffffffffffffffffffffffffffffffffffff1681526020019081526020016000208481548110151561367957fe5b90600052602060002001819055506000600760008773ffffffffffffffffffffffffffffffffffffffff1673ffffffffffffffffffffffffffffffffffffffff168152602001908152602001600020838154811015156136d557fe5b9060005260206000200181905550600760008673ffffffffffffffffffffffffffffffffffffffff1673ffffffffffffffffffffffffffffffffffffffff1681526020019081526020016000208054809190600190036137359190614409565b50600060086000868152602001908152602001600020819055508260086000838152602001908152602001600020819055505050505050565b600061377a83836140e6565b600760008473ffffffffffffffffffffffffffffffffffffffff1673ffffffffffffffffffffffffffffffffffffffff168152602001908152602001600020805490509050600760008473ffffffffffffffffffffffffffffffffffffffff1673ffffffffffffffffffffffffffffffffffffffff168152602001908152602001600020829080600181540180825580915050906001820390600052602060002001600090919290919091505550806008600084815260200190815260200160002081905550505050565b6000808463ffffffff1610158015613866575063ee6b28008463ffffffff16105b801561389457507fffffffffffffffffffffffffffffffffffffffffffffffffffffff172b5af0008360070b135b80156138a7575064e8d4a510008360070b125b80156138d557507fffffffffffffffffffffffffffffffffffffffffffffffffffffff172b5af0008260070b135b80156138e8575064e8d4a510008260070b125b90509392505050565b60008060006139008585614240565b6000600b600086815260200190815260200160002080546001816001161561010002031660029004905014151561395157600b600085815260200190815260200160002060006139509190614435565b5b600a600085815260200190815260200160002054925061398060016009805490506140cd90919063ffffffff16565b915060098281548110151561399157fe5b90600052602060002001549050806009848154811015156139ae57fe5b906000526020600020018190555060006009838154811015156139cd57fe5b906000526020600020018190555060098054809190600190036139f09190614409565b506000600a60008681526020019081526020016000208190555082600a6000838152602001908152602001600020819055505050505050565b613a3382826142b4565b600980549050600a60008381526020019081526020016000208190555060098190806001815401808255809150509060018203906000526020600020016000909192909190915055505050565b600080613aa28573ffffffffffffffffffffffffffffffffffffffff1661435a565b1515613ab15760019150613c99565b8473ffffffffffffffffffffffffffffffffffffffff1663150b7a02338887876040518563ffffffff167c0100000000000000000000000000000000000000000000000000000000028152600401808573ffffffffffffffffffffffffffffffffffffffff1673ffffffffffffffffffffffffffffffffffffffff1681526020018473ffffffffffffffffffffffffffffffffffffffff1673ffffffffffffffffffffffffffffffffffffffff16815260200183815260200180602001828103825283818151815260200191508051906020019080838360005b83811015613ba6578082015181840152602081019050613b8b565b50505050905090810190601f168015613bd35780820380516001836020036101000a031916815260200191505b5095505050505050602060405180830381600087803b158015613bf557600080fd5b505af1158015613c09573d6000803e3d6000fd5b505050506040513d6020811015613c1f57600080fd5b8101908080519060200190929190505050905063150b7a027c0100000000000000000000000000000000000000000000000000000000027bffffffffffffffffffffffffffffffffffffffffffffffffffffffff1916817bffffffffffffffffffffffffffffffffffffffffffffffffffffffff19161491505b50949350505050565b6060613cb38263ffffffff16613cba565b9050919050565b60606000806000806060600080881415613d0b576040805190810160405280600181526020017f30000000000000000000000000000000000000000000000000000000000000008152509650613e97565b60008812955085613d1c5787613d21565b876000035b94508493505b600085141515613d4d578280600101935050600a85811515613d4557fe5b049450613d27565b8515613d5a578260010192505b826040519080825280601f01601f191660200182016040528015613d8d5781602001602082028038833980820191505090505b5091506001830390505b600084141515613e2c57600a84811515613dad57fe5b066030017f010000000000000000000000000000000000000000000000000000000000000002828280600190039350815181101515613de857fe5b9060200101907effffffffffffffffffffffffffffffffffffffffffffffffffffffffffffff1916908160001a905350600a84811515613e2457fe5b049350613d97565b8515613e93577f2d00000000000000000000000000000000000000000000000000000000000000826000815181101515613e6257fe5b9060200101907effffffffffffffffffffffffffffffffffffffffffffffffffffffffffffff1916908160001a9053505b8196505b505050505050919050565b600073ffffffffffffffffffffffffffffffffffffffff168173ffffffffffffffffffffffffffffffffffffffff1614151515613ede57600080fd5b8073ffffffffffffffffffffffffffffffffffffffff16600c60009054906101000a900473ffffffffffffffffffffffffffffffffffffffff1673ffffffffffffffffffffffffffffffffffffffff167f8be0079c531659141344cd1fd0a4f28419497f9722a3daafe3b4186f6b6457e060405160405180910390a380600c60006101000a81548173ffffffffffffffffffffffffffffffffffffffff021916908373ffffffffffffffffffffffffffffffffffffffff16021790555050565b8173ffffffffffffffffffffffffffffffffffffffff16613fbe826119c6565b73ffffffffffffffffffffffffffffffffffffffff16141515613fe057600080fd5b6140336001600360008573ffffffffffffffffffffffffffffffffffffffff1673ffffffffffffffffffffffffffffffffffffffff168152602001908152602001600020546140cd90919063ffffffff16565b600360008473ffffffffffffffffffffffffffffffffffffffff1673ffffffffffffffffffffffffffffffffffffffff1681526020019081526020016000208190555060006001600083815260200190815260200160002060006101000a81548173ffffffffffffffffffffffffffffffffffffffff021916908373ffffffffffffffffffffffffffffffffffffffff1602179055505050565b60008282111515156140db57fe5b818303905092915050565b600073ffffffffffffffffffffffffffffffffffffffff166001600083815260200190815260200160002060009054906101000a900473ffffffffffffffffffffffffffffffffffffffff1673ffffffffffffffffffffffffffffffffffffffff1614151561415457600080fd5b816001600083815260200190815260200160002060006101000a81548173ffffffffffffffffffffffffffffffffffffffff021916908373ffffffffffffffffffffffffffffffffffffffff1602179055506141f96001600360008573ffffffffffffffffffffffffffffffffffffffff1673ffffffffffffffffffffffffffffffffffffffff1681526020019081526020016000205461436d90919063ffffffff16565b600360008473ffffffffffffffffffffffffffffffffffffffff1673ffffffffffffffffffffffffffffffffffffffff168152602001908152602001600020819055505050565b61424a8282613453565b6142548282613556565b80600073ffffffffffffffffffffffffffffffffffffffff168373ffffffffffffffffffffffffffffffffffffffff167fddf252ad1be2c89b69c2b068fc378daa952ba7f163c4a11628f55a4df523b3ef60405160405180910390a45050565b600073ffffffffffffffffffffffffffffffffffffffff168273ffffffffffffffffffffffffffffffffffffffff16141515156142f057600080fd5b6142fa828261376e565b808273ffffffffffffffffffffffffffffffffffffffff16600073ffffffffffffffffffffffffffffffffffffffff167fddf252ad1be2c89b69c2b068fc378daa952ba7f163c4a11628f55a4df523b3ef60405160405180910390a45050565b600080823b905060008111915050919050565b6000818301905082811015151561438057fe5b80905092915050565b828054600181600116156101000203166002900490600052602060002090601f016020900481019282601f106143ca57805160ff19168380011785556143f8565b828001600101855582156143f8579182015b828111156143f75782518255916020019190600101906143dc565b5b509050614405919061447d565b5090565b8154818355818111156144305781836000526020600020918201910161442f919061447d565b5b505050565b50805460018160011615610100020316600290046000825580601f1061445b575061447a565b601f016020900490600052602060002090810190614479919061447d565b5b50565b61449f91905b8082111561449b576000816000905550600101614483565b5090565b905600a165627a7a723058200423c2a46c5994a683c869afeefb3771721ae6b698966d4e3c5b0b962cf1a0510029",
  "source": "pragma solidity ^0.4.24;\n\nimport \"openzeppelin-solidity/contracts/token/ERC721/ERC721Token.sol\";\nimport \"./World.sol\";\nimport \"./LandBasic.sol\";\n\n\n/**\n* @title Block42 land token contract\n* @author Richard Fu (richardf@block42.world)\n* @dev Complant with OpenZeppelin's implementation of the ERC721 spec.\n*/\n\ncontract Land is ERC721Token, Pausable, LandBasic {\n\n  World internal worldContract_;\n  mapping(address => bool) internal authorizedAddresses_;\n\n  /**\n  * @dev Constructor function, initializes constant strings.\n  */\n  constructor(address _worldAddress) public\n    ERC721Token(\"Block42 Land\", \"B42LD\") {\n    worldContract_ = World(_worldAddress);\n  }\n\n  /**\n   * @dev Don't accept payment directly to contract.\n   */\n  function() public payable {\n    revert();\n  }\n\n  /**\n   * @dev Throws if a position not within valid range.\n   */\n  modifier validPosition(uint32 _world, int64 _x, int64 _y) {\n    require(isValidPosition(_world, _x, _y));\n    _;\n  }\n\n  /**\n   * @dev Checks if a position is within valid range.\n   */\n  function isValidPosition(uint32 _world, int64 _x, int64 _y) internal pure returns (bool) {\n    return _world >= 0 && _world < 4e9 && _x > -1e12 && _x < 1e12 && _y > -1e12 && _y < 1e12;\n  }\n\n  /**\n   * @dev Throws if called by any account other than the world owner or contract owner.\n   */\n  modifier onlyAuthorized(uint32 _world) {\n    require(msg.sender == worldContract_.ownerOf(_world) || msg.sender == owner || authorizedAddresses_[msg.sender]);\n    _;\n  }\n\n  /**\n   * @dev Authorizes a contract or a person the right to create a land token, contract owner or world creator only.\n   */\n  function authorize(address recipient) public onlyOwner {\n    require(recipient != address(0) && recipient != owner);\n    authorizedAddresses_[recipient] = true;\n  }\n\n  uint256 private constant FACTOR_WORLD = 0x0000000100000000000000000000000000000000000000000000000000000000;\n  uint256 private constant FACTOR_X =     0x0000000000000000000000000000000000010000000000000000000000000000;\n  uint256 private constant BITS_WORLD =   0xffffffff00000000000000000000000000000000000000000000000000000000;\n  uint256 private constant BITS_X =       0x00000000ffffffffffffffffffffffffffff0000000000000000000000000000;\n  uint256 private constant BITS_Y =       0x000000000000000000000000000000000000ffffffffffffffffffffffffffff;\n\n  /**\n   * @dev Encode world-index, x and y into a token ID.\n   * @param _worldId uint32 world index start with 0 and max of 4B (2^32).\n   * @param _x int64 x-coordinate of the land, from -1T to +1T (2^63).\n   * @param _y int64 y-coordinate of the land, from -1T to +1T (2^63).\n   * @return uint256 representing the NFT identifier; 256 bits, 32 bits for world, 112 bits each for x and y.\n   */\n  function encodeTokenId(uint32 _worldId, int64 _x, int64 _y) public pure validPosition(_worldId, _x, _y) returns (uint256) {\n    return ((_worldId * FACTOR_WORLD) & BITS_WORLD) | ((uint256(_x) * FACTOR_X) & BITS_X) | (uint256(_y) & BITS_Y);\n  }\n\n  /**\n   * @dev Decode a token ID into world-index, x and y.\n   * @param _tokenId The NFT identifier\n   * @return World index within 4B; x and y within +- 1T.\n   */\n  function decodeTokenId(uint256 _tokenId) public pure returns (uint32 _worldId, int64 _x, int64 _y) {\n    _worldId = uint8((_tokenId & BITS_WORLD) >> 224); // shift right for 2x112 bits\n    _x = int32((_tokenId & BITS_X) >> 112); // shift right for 112 bits\n    _y = int32(_tokenId & BITS_Y);\n    require(isValidPosition(_worldId, _x, _y));\n  }\n\n  /**\n   * @dev Gets the owner of the specified position.\n   */\n  function ownerOf(uint32 _worldId, int64 _x, int64 _y) public view returns (address) {\n    return ownerOf(encodeTokenId(_worldId, _x, _y));\n  }\n\n  /**\n   * @dev Returns whether the specified land exists.\n   */\n  function exists(uint32 _worldId, int64 _x, int64 _y) public view returns (bool) {\n    return exists(encodeTokenId(_worldId, _x, _y));\n  }\n\n  /**\n   * @dev Gets all owned lands of an account.\n   */\n  function landsOf(address _owner) external view returns (uint32[], int64[], int64[]) {\n    uint256 length = ownedTokens[_owner].length;\n    uint32[] memory worlds = new uint32[](length);    \n    int64[] memory xs = new int64[](length);\n    int64[] memory ys = new int64[](length);\n    uint32 world;\n    int64 x;\n    int64 y;\n    for (uint i = 0; i < length; i++) {\n      (world, x, y) = decodeTokenId(ownedTokens[_owner][i]);\n      worlds[i] = world;\n      xs[i] = x;\n      ys[i] = y;\n    }\n    return (worlds, xs, ys);\n  }\n\n  /**\n   * @dev Gets all owned lands of an account in a world.\n   */\n  function landsOf(uint32 _worldId, address _owner) external view returns (int64[], int64[]) {\n    uint256 length = ownedTokens[_owner].length;\n    int64[] memory xs = new int64[](length);\n    int64[] memory ys = new int64[](length);\n    uint32 worldId;\n    int64 x;\n    int64 y;\n    for (uint i = 0; i < length; i++) {\n      (worldId, x, y) = decodeTokenId(ownedTokens[_owner][i]);\n      if (worldId == _worldId) {\n        xs[i] = x;\n        ys[i] = y;\n      }\n    }\n    return (xs, ys);\n  }\n\n  /**\n   * @dev Creates a land, only from authorized addresses.\n   */\n  function create(uint32 _worldId, int64 _x, int64 _y) public onlyAuthorized(_worldId) validPosition(_worldId, _x, _y) {\n    createAndTransfer(msg.sender, _worldId, _x, _y);\n  }\n\n  /**\n   * @dev Creates a land and assign its ownership to an address, only from authorized addresses.\n   */\n  function createAndTransfer(address _to, uint32 _worldId, int64 _x, int64 _y) public onlyAuthorized(_worldId) validPosition(_worldId, _x, _y) {\n    uint256 tokenId = encodeTokenId(_worldId, _x, _y);\n    super._mint(_to, tokenId);\n    emit Create(_worldId, _x, _y);\n  }\n\n  /**\n   * @dev Creates a batch of lands for sale, only from authorized addresses.\n   */\n  function create(uint32 _worldId, int64[] _xs, int64[] _ys) public onlyAuthorized(_worldId) {\n    for(uint i = 0; i < _xs.length; i++) {\n      if (isValidPosition(_worldId, _xs[i], _ys[i]))\n        create(_worldId, _xs[i], _ys[i]);\n    }\n  }\n\n  /**\n   * @dev Destroys a land, only from authorized addresses for their owned lands.\n   */\n  function detroy(uint32 _worldId, int64 _x, int64 _y) public onlyAuthorized(_worldId) validPosition(_worldId, _x, _y) {\n    uint256 tokenId = encodeTokenId(_worldId, _x, _y);\n    require(isApprovedOrOwner(msg.sender, tokenId));\n    _burn(msg.sender, tokenId);\n  }\n\n  /**\n   * @dev Gets all lands as arrays.\n   * @return The array of x, y, owner.\n   */\n  function allLands(uint32 _checkWorld) public view returns (int64[] xs, int64[] ys, address[] owners) {\n    xs = new int64[](allTokens.length);\n    ys = new int64[](allTokens.length);\n    owners = new address[](allTokens.length);\n    for (uint i = 0; i < allTokens.length; i++) {\n      uint256 tokenId = allTokens[i];\n      (uint32 world, int64 x, int64 y) = decodeTokenId(tokenId);\n      if (_checkWorld == world) {\n        xs[i] = x;\n        ys[i] = y;\n        owners[i] = ownerOf(tokenId);\n      }\n    }\n  }\n\n  string public baseURI_ = \"http://api.block42.world/lands/\";\n\n  /**\n   * @dev Sets the base URI, owner only.\n   */\n  function setBaseURI(string _baseURI) public onlyOwner {\n    baseURI_ = _baseURI;\n  }\n  \n  /**\n   * @dev Returns an URI for a given position.\n   * @dev Throws if the land at the position does not exist. May return an empty string.\n   */\n  function tokenURI(uint32 _worldId, int64 _x, int64 _y) public view returns (string) {\n    return tokenURI(encodeTokenId(_worldId, _x, _y));\n  }\n\n  /**\n   * @dev Returns an URI for a given token ID.\n   * @dev Throws if the token ID does not exist. May return an empty string.\n   * @param _tokenId uint256 ID of the token to query.\n   */\n  function tokenURI(uint256 _tokenId) public view returns (string) {\n    bytes memory uriByte = bytes(tokenURIs[_tokenId]);\n    if (uriByte.length == 0) {\n      (uint32 world, int64 x, int64 y) = decodeTokenId(_tokenId);\n      return string(abi.encodePacked(baseURI_, _uint32ToString(world), \"/\", _int2str(x), \"/\", _int2str(y)));\n    }\n  }\n\n  /**\n   * Converts an uint32 to string.\n   */\n  function _uint32ToString(uint32 i) internal pure returns (string) {\n    return _int2str(int(i));\n  }\n\n  /**\n   * Converts a int to string.\n   */\n  function _int2str(int i) internal pure returns (string){\n    if (i == 0) return \"0\";\n    bool negative = i < 0;\n    uint j = uint(negative ? -i : i);\n    uint abs = j;         // Keep an unsigned copy\n    uint len;\n    while (j != 0){\n      len++;\n      j /= 10;\n    }\n    if (negative) ++len;  // Make room for '-' sign\n    bytes memory bstr = new bytes(len);\n    uint k = len - 1;\n    while (abs != 0){\n      bstr[k--] = byte(48 + abs % 10);\n      abs /= 10;\n    }\n    if (negative) {       // Prepend '-'\n      bstr[0] = \"-\";\n    }\n    return string(bstr);\n  }\n\n}",
  "sourcePath": "/Users/fur/Projects/Block42/landpot-dapp/contracts/Land.sol",
  "compiler": {
    "name": "solc",
    "version": "0.4.24+commit.e67f0147.Emscripten.clang"
  },
  "schemaVersion": "2.0.1",
  "updatedAt": "2018-08-02T02:30:35.095Z"
}