{
  "contractName": "LandPotAuction",
  "abi": [
    {
      "constant": true,
      "inputs": [
        {
          "name": "",
          "type": "address"
        }
      ],
      "name": "balances",
      "outputs": [
        {
          "name": "",
          "type": "uint256"
        }
      ],
      "payable": false,
      "stateMutability": "view",
      "type": "function"
    },
    {
      "constant": false,
      "inputs": [],
      "name": "unpause",
      "outputs": [],
      "payable": false,
      "stateMutability": "nonpayable",
      "type": "function"
    },
    {
      "constant": true,
      "inputs": [],
      "name": "currentWorldId",
      "outputs": [
        {
          "name": "",
          "type": "uint32"
        }
      ],
      "payable": false,
      "stateMutability": "view",
      "type": "function"
    },
    {
      "constant": true,
      "inputs": [],
      "name": "currentAuction",
      "outputs": [
        {
          "name": "x",
          "type": "int64"
        },
        {
          "name": "y",
          "type": "int64"
        },
        {
          "name": "endingTime",
          "type": "uint64"
        }
      ],
      "payable": false,
      "stateMutability": "view",
      "type": "function"
    },
    {
      "constant": true,
      "inputs": [
        {
          "name": "",
          "type": "uint256"
        }
      ],
      "name": "landAuction",
      "outputs": [
        {
          "name": "x",
          "type": "int64"
        },
        {
          "name": "y",
          "type": "int64"
        },
        {
          "name": "endingTime",
          "type": "uint64"
        }
      ],
      "payable": false,
      "stateMutability": "view",
      "type": "function"
    },
    {
      "constant": true,
      "inputs": [],
      "name": "paused",
      "outputs": [
        {
          "name": "",
          "type": "bool"
        }
      ],
      "payable": false,
      "stateMutability": "view",
      "type": "function"
    },
    {
      "constant": true,
      "inputs": [],
      "name": "jackpot",
      "outputs": [
        {
          "name": "",
          "type": "uint256"
        }
      ],
      "payable": false,
      "stateMutability": "view",
      "type": "function"
    },
    {
      "constant": false,
      "inputs": [],
      "name": "renounceOwnership",
      "outputs": [],
      "payable": false,
      "stateMutability": "nonpayable",
      "type": "function"
    },
    {
      "constant": true,
      "inputs": [
        {
          "name": "",
          "type": "uint32"
        },
        {
          "name": "",
          "type": "uint256"
        }
      ],
      "name": "pastAuctions",
      "outputs": [
        {
          "name": "x",
          "type": "int64"
        },
        {
          "name": "y",
          "type": "int64"
        },
        {
          "name": "endingTime",
          "type": "uint64"
        }
      ],
      "payable": false,
      "stateMutability": "view",
      "type": "function"
    },
    {
      "constant": false,
      "inputs": [],
      "name": "pause",
      "outputs": [],
      "payable": false,
      "stateMutability": "nonpayable",
      "type": "function"
    },
    {
      "constant": true,
      "inputs": [],
      "name": "owner",
      "outputs": [
        {
          "name": "",
          "type": "address"
        }
      ],
      "payable": false,
      "stateMutability": "view",
      "type": "function"
    },
    {
      "constant": true,
      "inputs": [],
      "name": "totalBalances",
      "outputs": [
        {
          "name": "",
          "type": "uint256"
        }
      ],
      "payable": false,
      "stateMutability": "view",
      "type": "function"
    },
    {
      "constant": false,
      "inputs": [
        {
          "name": "_newOwner",
          "type": "address"
        }
      ],
      "name": "transferOwnership",
      "outputs": [],
      "payable": false,
      "stateMutability": "nonpayable",
      "type": "function"
    },
    {
      "inputs": [
        {
          "name": "_bidLandAddress",
          "type": "address"
        }
      ],
      "payable": false,
      "stateMutability": "nonpayable",
      "type": "constructor"
    },
    {
      "anonymous": false,
      "inputs": [
        {
          "indexed": false,
          "name": "x",
          "type": "int8"
        },
        {
          "indexed": false,
          "name": "y",
          "type": "int8"
        },
        {
          "indexed": true,
          "name": "bidder",
          "type": "address"
        },
        {
          "indexed": true,
          "name": "team",
          "type": "uint8"
        },
        {
          "indexed": false,
          "name": "currentBid",
          "type": "uint256"
        }
      ],
      "name": "Bid",
      "type": "event"
    },
    {
      "anonymous": false,
      "inputs": [
        {
          "indexed": false,
          "name": "x",
          "type": "int8"
        },
        {
          "indexed": false,
          "name": "y",
          "type": "int8"
        },
        {
          "indexed": true,
          "name": "oldBidder",
          "type": "address"
        },
        {
          "indexed": true,
          "name": "bidder",
          "type": "address"
        },
        {
          "indexed": true,
          "name": "team",
          "type": "uint8"
        },
        {
          "indexed": false,
          "name": "currentBid",
          "type": "uint256"
        }
      ],
      "name": "OutBid",
      "type": "event"
    },
    {
      "anonymous": false,
      "inputs": [
        {
          "indexed": true,
          "name": "payee",
          "type": "address"
        },
        {
          "indexed": false,
          "name": "weiAmount",
          "type": "uint256"
        }
      ],
      "name": "Withdrawn",
      "type": "event"
    },
    {
      "anonymous": false,
      "inputs": [],
      "name": "Pause",
      "type": "event"
    },
    {
      "anonymous": false,
      "inputs": [],
      "name": "Unpause",
      "type": "event"
    },
    {
      "anonymous": false,
      "inputs": [
        {
          "indexed": true,
          "name": "previousOwner",
          "type": "address"
        }
      ],
      "name": "OwnershipRenounced",
      "type": "event"
    },
    {
      "anonymous": false,
      "inputs": [
        {
          "indexed": true,
          "name": "previousOwner",
          "type": "address"
        },
        {
          "indexed": true,
          "name": "newOwner",
          "type": "address"
        }
      ],
      "name": "OwnershipTransferred",
      "type": "event"
    },
    {
      "constant": false,
      "inputs": [
        {
          "name": "x",
          "type": "int64"
        },
        {
          "name": "y",
          "type": "int64"
        }
      ],
      "name": "startAuction",
      "outputs": [],
      "payable": false,
      "stateMutability": "nonpayable",
      "type": "function"
    },
    {
      "constant": false,
      "inputs": [],
      "name": "startFreeTrade",
      "outputs": [],
      "payable": false,
      "stateMutability": "nonpayable",
      "type": "function"
    },
    {
      "constant": false,
      "inputs": [],
      "name": "endAuction",
      "outputs": [],
      "payable": false,
      "stateMutability": "nonpayable",
      "type": "function"
    },
    {
      "constant": false,
      "inputs": [
        {
          "name": "_worldId",
          "type": "uint32"
        },
        {
          "name": "x",
          "type": "int64"
        },
        {
          "name": "y",
          "type": "int64"
        }
      ],
      "name": "restartGame",
      "outputs": [],
      "payable": false,
      "stateMutability": "nonpayable",
      "type": "function"
    },
    {
      "constant": true,
      "inputs": [
        {
          "name": "i",
          "type": "int8"
        },
        {
          "name": "j",
          "type": "int8"
        }
      ],
      "name": "plotPositionToIndex",
      "outputs": [
        {
          "name": "",
          "type": "uint8"
        }
      ],
      "payable": false,
      "stateMutability": "pure",
      "type": "function"
    },
    {
      "constant": true,
      "inputs": [
        {
          "name": "k",
          "type": "uint8"
        }
      ],
      "name": "plotIndexToPosition",
      "outputs": [
        {
          "name": "i",
          "type": "int8"
        },
        {
          "name": "j",
          "type": "int8"
        }
      ],
      "payable": false,
      "stateMutability": "pure",
      "type": "function"
    },
    {
      "constant": true,
      "inputs": [],
      "name": "getAuction",
      "outputs": [
        {
          "name": "",
          "type": "int64"
        },
        {
          "name": "",
          "type": "int64"
        },
        {
          "name": "",
          "type": "uint64"
        }
      ],
      "payable": false,
      "stateMutability": "view",
      "type": "function"
    },
    {
      "constant": true,
      "inputs": [],
      "name": "getEndingTime",
      "outputs": [
        {
          "name": "",
          "type": "uint64"
        }
      ],
      "payable": false,
      "stateMutability": "view",
      "type": "function"
    },
    {
      "constant": true,
      "inputs": [
        {
          "name": "i",
          "type": "int8"
        },
        {
          "name": "j",
          "type": "int8"
        }
      ],
      "name": "getPlot",
      "outputs": [
        {
          "name": "x",
          "type": "int8"
        },
        {
          "name": "y",
          "type": "int8"
        },
        {
          "name": "bidder",
          "type": "address"
        },
        {
          "name": "team",
          "type": "uint8"
        },
        {
          "name": "currentBid",
          "type": "uint256"
        }
      ],
      "payable": false,
      "stateMutability": "view",
      "type": "function"
    },
    {
      "constant": true,
      "inputs": [
        {
          "name": "k",
          "type": "uint8"
        }
      ],
      "name": "getPlotByIndex",
      "outputs": [
        {
          "name": "x",
          "type": "int8"
        },
        {
          "name": "y",
          "type": "int8"
        },
        {
          "name": "bidder",
          "type": "address"
        },
        {
          "name": "team",
          "type": "uint8"
        },
        {
          "name": "currentBid",
          "type": "uint256"
        }
      ],
      "payable": false,
      "stateMutability": "view",
      "type": "function"
    },
    {
      "constant": true,
      "inputs": [],
      "name": "getPlots",
      "outputs": [
        {
          "name": "xs",
          "type": "int8[]"
        },
        {
          "name": "ys",
          "type": "int8[]"
        },
        {
          "name": "bidders",
          "type": "address[]"
        },
        {
          "name": "teams",
          "type": "uint8[]"
        },
        {
          "name": "currentBids",
          "type": "uint256[]"
        }
      ],
      "payable": false,
      "stateMutability": "view",
      "type": "function"
    },
    {
      "constant": false,
      "inputs": [
        {
          "name": "i",
          "type": "int8"
        },
        {
          "name": "j",
          "type": "int8"
        },
        {
          "name": "team",
          "type": "uint8"
        }
      ],
      "name": "bid",
      "outputs": [],
      "payable": true,
      "stateMutability": "payable",
      "type": "function"
    },
    {
      "constant": true,
      "inputs": [],
      "name": "getMyContributedBids",
      "outputs": [
        {
          "name": "xs",
          "type": "int8[]"
        },
        {
          "name": "ys",
          "type": "int8[]"
        },
        {
          "name": "bids",
          "type": "uint256[]"
        }
      ],
      "payable": false,
      "stateMutability": "view",
      "type": "function"
    },
    {
      "constant": true,
      "inputs": [
        {
          "name": "i",
          "type": "int8"
        },
        {
          "name": "j",
          "type": "int8"
        }
      ],
      "name": "getMaxBid",
      "outputs": [
        {
          "name": "",
          "type": "uint256"
        }
      ],
      "payable": false,
      "stateMutability": "view",
      "type": "function"
    },
    {
      "constant": true,
      "inputs": [
        {
          "name": "who",
          "type": "address"
        }
      ],
      "name": "balanceOf",
      "outputs": [
        {
          "name": "",
          "type": "uint256"
        }
      ],
      "payable": false,
      "stateMutability": "view",
      "type": "function"
    },
    {
      "constant": true,
      "inputs": [],
      "name": "balanceOfMe",
      "outputs": [
        {
          "name": "",
          "type": "uint256"
        }
      ],
      "payable": false,
      "stateMutability": "view",
      "type": "function"
    },
    {
      "constant": false,
      "inputs": [],
      "name": "withdraw",
      "outputs": [],
      "payable": false,
      "stateMutability": "nonpayable",
      "type": "function"
    },
    {
      "constant": false,
      "inputs": [],
      "name": "ownerWithdraw",
      "outputs": [],
      "payable": false,
      "stateMutability": "nonpayable",
      "type": "function"
    }
  ],
  "bytecode": "0x608060405260008060146101000a81548160ff02191690831515021790555034801561002a57600080fd5b50604051602080612bf683398101806040528101908080519060200190929190505050336000806101000a81548173ffffffffffffffffffffffffffffffffffffffff021916908373ffffffffffffffffffffffffffffffffffffffff16021790555080600860006101000a81548173ffffffffffffffffffffffffffffffffffffffff021916908373ffffffffffffffffffffffffffffffffffffffff16021790555050612b18806100de6000396000f30060806040526004361061018b576000357c0100000000000000000000000000000000000000000000000000000000900463ffffffff1680630550723c146101905780630d8ca0cd146101dd5780630eb2b9c91461021a57806327e235e31461024557806328a359401461029c5780632b34b3ce1461033a5780633312f091146103915780633ccfd60b1461048d5780633f4ba83a146104a45780634311de8f146104bb57806346b8ecc9146104d2578063496a698d14610509578063506c2e9b146105625780635c975abb146105d15780636b31ee011461060057806370a082311461062b578063715018a6146106825780637327df25146106995780637f36673d146106f25780638456cb59146107715780638da5cb5b14610788578063a69a2ad1146107df578063b0ef82991461080a578063b338b3be14610861578063c1da7e9b1461089e578063c36b1c62146108dd578063cc64c00f146108f4578063d1e30c111461099f578063f2fde38b146109f0578063f9cf80a914610a33578063fe67a54b14610bbf575b600080fd5b34801561019c57600080fd5b506101db600480360381019080803563ffffffff169060200190929190803560070b9060200190929190803560070b9060200190929190505050610bd6565b005b3480156101e957600080fd5b50610218600480360381019080803560070b9060200190929190803560070b9060200190929190505050610c92565b005b34801561022657600080fd5b5061022f6110aa565b6040518082815260200191505060405180910390f35b34801561025157600080fd5b50610286600480360381019080803573ffffffffffffffffffffffffffffffffffffffff1690602001909291905050506110ba565b6040518082815260200191505060405180910390f35b3480156102a857600080fd5b506102ca600480360381019080803560ff1690602001909291905050506110d2565b604051808660000b60000b81526020018560000b60000b81526020018473ffffffffffffffffffffffffffffffffffffffff1673ffffffffffffffffffffffffffffffffffffffff1681526020018360ff1660ff1681526020018281526020019550505050505060405180910390f35b34801561034657600080fd5b50610375600480360381019080803560000b9060200190929190803560000b9060200190929190505050611174565b604051808260ff1660ff16815260200191505060405180910390f35b34801561039d57600080fd5b506103a661118a565b60405180806020018060200180602001848103845287818151815260200191508051906020019060200280838360005b838110156103f15780820151818401526020810190506103d6565b50505050905001848103835286818151815260200191508051906020019060200280838360005b83811015610433578082015181840152602081019050610418565b50505050905001848103825285818151815260200191508051906020019060200280838360005b8381101561047557808201518184015260208101905061045a565b50505050905001965050505050505060405180910390f35b34801561049957600080fd5b506104a26113a4565b005b3480156104b057600080fd5b506104b96114d5565b005b3480156104c757600080fd5b506104d0611593565b005b3480156104de57600080fd5b506104e76116b1565b604051808263ffffffff1663ffffffff16815260200191505060405180910390f35b34801561051557600080fd5b5061051e6116c7565b604051808460070b60070b81526020018360070b60070b81526020018267ffffffffffffffff1667ffffffffffffffff168152602001935050505060405180910390f35b34801561056e57600080fd5b5061058d6004803603810190808035906020019092919050505061170d565b604051808460070b60070b81526020018360070b60070b81526020018267ffffffffffffffff1667ffffffffffffffff168152602001935050505060405180910390f35b3480156105dd57600080fd5b506105e6611765565b604051808215151515815260200191505060405180910390f35b34801561060c57600080fd5b50610615611778565b6040518082815260200191505060405180910390f35b34801561063757600080fd5b5061066c600480360381019080803573ffffffffffffffffffffffffffffffffffffffff16906020019092919050505061177e565b6040518082815260200191505060405180910390f35b34801561068e57600080fd5b506106976117c7565b005b3480156106a557600080fd5b506106ae6118c9565b604051808460070b60070b81526020018360070b60070b81526020018267ffffffffffffffff1667ffffffffffffffff168152602001935050505060405180910390f35b3480156106fe57600080fd5b5061072d600480360381019080803563ffffffff16906020019092919080359060200190929190505050611919565b604051808460070b60070b81526020018360070b60070b81526020018267ffffffffffffffff1667ffffffffffffffff168152602001935050505060405180910390f35b34801561077d57600080fd5b5061078661198d565b005b34801561079457600080fd5b5061079d611a4d565b604051808273ffffffffffffffffffffffffffffffffffffffff1673ffffffffffffffffffffffffffffffffffffffff16815260200191505060405180910390f35b3480156107eb57600080fd5b506107f4611a72565b6040518082815260200191505060405180910390f35b34801561081657600080fd5b50610838600480360381019080803560ff169060200190929190505050611a78565b604051808360000b60000b81526020018260000b60000b81526020019250505060405180910390f35b61089c600480360381019080803560000b9060200190929190803560000b9060200190929190803560ff169060200190929190505050611ab0565b005b3480156108aa57600080fd5b506108b3612057565b604051808267ffffffffffffffff1667ffffffffffffffff16815260200191505060405180910390f35b3480156108e957600080fd5b506108f2612078565b005b34801561090057600080fd5b5061092f600480360381019080803560000b9060200190929190803560000b90602001909291905050506120e0565b604051808660000b60000b81526020018560000b60000b81526020018473ffffffffffffffffffffffffffffffffffffffff1673ffffffffffffffffffffffffffffffffffffffff1681526020018360ff1660ff1681526020018281526020019550505050505060405180910390f35b3480156109ab57600080fd5b506109da600480360381019080803560000b9060200190929190803560000b906020019092919050505061210e565b6040518082815260200191505060405180910390f35b3480156109fc57600080fd5b50610a31600480360381019080803573ffffffffffffffffffffffffffffffffffffffff1690602001909291905050506121ab565b005b348015610a3f57600080fd5b50610a48612212565b60405180806020018060200180602001806020018060200186810386528b818151815260200191508051906020019060200280838360005b83811015610a9b578082015181840152602081019050610a80565b5050505090500186810385528a818151815260200191508051906020019060200280838360005b83811015610add578082015181840152602081019050610ac2565b50505050905001868103845289818151815260200191508051906020019060200280838360005b83811015610b1f578082015181840152602081019050610b04565b50505050905001868103835288818151815260200191508051906020019060200280838360005b83811015610b61578082015181840152602081019050610b46565b50505050905001868103825287818151815260200191508051906020019060200280838360005b83811015610ba3578082015181840152602081019050610b88565b505050509050019a505050505050505050505060405180910390f35b348015610bcb57600080fd5b50610bd46124bb565b005b6000809054906101000a900473ffffffffffffffffffffffffffffffffffffffff1673ffffffffffffffffffffffffffffffffffffffff163373ffffffffffffffffffffffffffffffffffffffff16141515610c3157600080fd5b42600460000160109054906101000a900467ffffffffffffffff1667ffffffffffffffff16101515610c6257600080fd5b82600060156101000a81548163ffffffff021916908363ffffffff160217905550610c8d8282610c92565b505050565b6000806000806000809054906101000a900473ffffffffffffffffffffffffffffffffffffffff1673ffffffffffffffffffffffffffffffffffffffff163373ffffffffffffffffffffffffffffffffffffffff16141515610cf357600080fd5b42600460000160109054906101000a900467ffffffffffffffff1667ffffffffffffffff16101515610d2457600080fd5b610d2c6125ac565b85600460000160006101000a81548167ffffffffffffffff021916908360070b67ffffffffffffffff16021790555084600460000160086101000a81548167ffffffffffffffff021916908360070b67ffffffffffffffff16021790555062093a806201518042811515610d9c57fe5b06420301600460000160106101000a81548167ffffffffffffffff021916908367ffffffffffffffff1602179055506000935060006004600101805490501415610de557600193505b600092505b603160ff168360ff1610156110a257610e0283611a78565b915091508315610f5957600460010160c0604051908101604052808460000b81526020018360000b8152602001600073ffffffffffffffffffffffffffffffffffffffff168152602001600060ff1681526020016000815260200160008152509080600181540180825580915050906001820390600052602060002090600402016000909192909190915060008201518160000160006101000a81548160ff021916908360000b60ff16021790555060208201518160000160016101000a81548160ff021916908360000b60ff16021790555060408201518160000160026101000a81548173ffffffffffffffffffffffffffffffffffffffff021916908373ffffffffffffffffffffffffffffffffffffffff16021790555060608201518160000160166101000a81548160ff021916908360ff1602179055506080820151816001015560a08201518160020155505050611095565b60c0604051908101604052808360000b81526020018260000b8152602001600073ffffffffffffffffffffffffffffffffffffffff168152602001600060ff16815260200160008152602001600081525060046001018460ff16815481101515610fbf57fe5b906000526020600020906004020160008201518160000160006101000a81548160ff021916908360000b60ff16021790555060208201518160000160016101000a81548160ff021916908360000b60ff16021790555060408201518160000160026101000a81548173ffffffffffffffffffffffffffffffffffffffff021916908373ffffffffffffffffffffffffffffffffffffffff16021790555060608201518160000160166101000a81548160ff021916908360ff1602179055506080820151816001015560a082015181600201559050505b8280600101935050610dea565b505050505050565b60006110b53361177e565b905090565b60026020528060005260406000206000915090505481565b60008060008060008060046001018760ff168154811015156110f057fe5b906000526020600020906004020190508060000160009054906101000a900460000b8160000160019054906101000a900460000b8260000160029054906101000a900473ffffffffffffffffffffffffffffffffffffffff168360000160169054906101000a900460ff168460010154955095509550955095505091939590929450565b6000600382600760038601020101905092915050565b606080606060008060006007800292508260ff166040519080825280602002602001820160405280156111cc5781602001602082028038833980820191505090505b5095508260ff166040519080825280602002602001820160405280156112015781602001602082028038833980820191505090505b5094508260ff166040519080825280602002602001820160405280156112365781602001602082028038833980820191505090505b509350600091505b8260ff168260ff16101561139c5760046001018260ff1681548110151561126157fe5b9060005260206000209060040201905060008160030160003373ffffffffffffffffffffffffffffffffffffffff1673ffffffffffffffffffffffffffffffffffffffff16815260200190815260200160002054111561138f578060000160009054906101000a900460000b868360ff168151811015156112de57fe5b9060200190602002019060000b908160000b815250508060000160019054906101000a900460000b858360ff1681518110151561131757fe5b9060200190602002019060000b908160000b815250508060030160003373ffffffffffffffffffffffffffffffffffffffff1673ffffffffffffffffffffffffffffffffffffffff16815260200190815260200160002054848360ff1681518110151561138057fe5b90602001906020020181815250505b818060010192505061123e565b505050909192565b600080600260003373ffffffffffffffffffffffffffffffffffffffff1673ffffffffffffffffffffffffffffffffffffffff168152602001908152602001600020541115156113f357600080fd5b600260003373ffffffffffffffffffffffffffffffffffffffff1673ffffffffffffffffffffffffffffffffffffffff16815260200190815260200160002054905061143d612727565b3373ffffffffffffffffffffffffffffffffffffffff166108fc829081150290604051600060405180830381858888f19350505050158015611483573d6000803e3d6000fd5b503373ffffffffffffffffffffffffffffffffffffffff167f7084f5476618d8e60b11ef0d7d3f06914655adb8793e28ff7f018d4c76d505d5826040518082815260200191505060405180910390a250565b6000809054906101000a900473ffffffffffffffffffffffffffffffffffffffff1673ffffffffffffffffffffffffffffffffffffffff163373ffffffffffffffffffffffffffffffffffffffff1614151561153057600080fd5b600060149054906101000a900460ff16151561154b57600080fd5b60008060146101000a81548160ff0219169083151502179055507f7805862f689e2f13df9f062ff482ad3ad112aca9e0847911ed832e158c525b3360405160405180910390a1565b6000809054906101000a900473ffffffffffffffffffffffffffffffffffffffff1673ffffffffffffffffffffffffffffffffffffffff163373ffffffffffffffffffffffffffffffffffffffff161415156115ee57600080fd5b6116056003546001546127c890919063ffffffff16565b3073ffffffffffffffffffffffffffffffffffffffff163111151561162957600080fd5b3373ffffffffffffffffffffffffffffffffffffffff166108fc6116836003546116756001543073ffffffffffffffffffffffffffffffffffffffff16316127e490919063ffffffff16565b6127e490919063ffffffff16565b9081150290604051600060405180830381858888f193505050501580156116ae573d6000803e3d6000fd5b50565b600060159054906101000a900463ffffffff1681565b60048060000160009054906101000a900460070b908060000160089054906101000a900460070b908060000160109054906101000a900467ffffffffffffffff16905083565b60076020528060005260406000206000915090508060000160009054906101000a900460070b908060000160089054906101000a900460070b908060000160109054906101000a900467ffffffffffffffff16905083565b600060149054906101000a900460ff1681565b60015481565b6000600260008373ffffffffffffffffffffffffffffffffffffffff1673ffffffffffffffffffffffffffffffffffffffff168152602001908152602001600020549050919050565b6000809054906101000a900473ffffffffffffffffffffffffffffffffffffffff1673ffffffffffffffffffffffffffffffffffffffff163373ffffffffffffffffffffffffffffffffffffffff1614151561182257600080fd5b6000809054906101000a900473ffffffffffffffffffffffffffffffffffffffff1673ffffffffffffffffffffffffffffffffffffffff167ff8df31144d9c2f0f6b59d69b8b98abd5459d07f2742c4df920b25aae33c6482060405160405180910390a260008060006101000a81548173ffffffffffffffffffffffffffffffffffffffff021916908373ffffffffffffffffffffffffffffffffffffffff160217905550565b6000806000600460000160009054906101000a900460070b600460000160089054906101000a900460070b600460000160109054906101000a900467ffffffffffffffff16925092509250909192565b60066020528160005260406000208181548110151561193457fe5b9060005260206000209060020201600091509150508060000160009054906101000a900460070b908060000160089054906101000a900460070b908060000160109054906101000a900467ffffffffffffffff16905083565b6000809054906101000a900473ffffffffffffffffffffffffffffffffffffffff1673ffffffffffffffffffffffffffffffffffffffff163373ffffffffffffffffffffffffffffffffffffffff161415156119e857600080fd5b600060149054906101000a900460ff16151515611a0457600080fd5b6001600060146101000a81548160ff0219169083151502179055507f6985a02210a168e66602d3235cb6db0e70f92b3ba4d376a33c0f3d9434bff62560405160405180910390a1565b6000809054906101000a900473ffffffffffffffffffffffffffffffffffffffff1681565b60035481565b6000806003600760000b8460000b811515611a8f57fe5b050391506003600760000b8460000b811515611aa757fe5b07039050915091565b60008060008060149054906101000a900460ff16151515611ad057600080fd5b6000600460000160009054906101000a900460070b60070b141580611b0b57506000600460000160089054906101000a900460070b60070b14155b1515611b1657600080fd5b611b208686611174565b925060046001018360ff16815481101515611b3757fe5b90600052602060002090600402019150611b9934600260003373ffffffffffffffffffffffffffffffffffffffff1673ffffffffffffffffffffffffffffffffffffffff168152602001908152602001600020546127c890919063ffffffff16565b9050611bb966038d7ea4c6800083600101546127c890919063ffffffff16565b8110151515611bc757600080fd5b816002015481111515611da5578360ff163373ffffffffffffffffffffffffffffffffffffffff168360000160029054906101000a900473ffffffffffffffffffffffffffffffffffffffff1673ffffffffffffffffffffffffffffffffffffffff167fb9dd3aba762bfd683c931b0da771705650e07f848964a8cc0357468c25663e518560000160009054906101000a900460000b8660000160019054906101000a900460000b86604051808460000b60000b81526020018360000b60000b8152602001828152602001935050505060405180910390a4611cb966038d7ea4c68000826127c890919063ffffffff16565b90508082600101819055508160000160169054906101000a900460ff1660ff168260000160029054906101000a900473ffffffffffffffffffffffffffffffffffffffff1673ffffffffffffffffffffffffffffffffffffffff163373ffffffffffffffffffffffffffffffffffffffff167fb9dd3aba762bfd683c931b0da771705650e07f848964a8cc0357468c25663e518560000160009054906101000a900460000b8660000160019054906101000a900460000b86604051808460000b60000b81526020018360000b60000b8152602001828152602001935050505060405180910390a4600080fd5b600073ffffffffffffffffffffffffffffffffffffffff168260000160029054906101000a900473ffffffffffffffffffffffffffffffffffffffff1673ffffffffffffffffffffffffffffffffffffffff16141515611f0057611e1882600201546003546127c890919063ffffffff16565b600381905550611e988260020154600260008560000160029054906101000a900473ffffffffffffffffffffffffffffffffffffffff1673ffffffffffffffffffffffffffffffffffffffff1673ffffffffffffffffffffffffffffffffffffffff168152602001908152602001600020546127c890919063ffffffff16565b600260008460000160029054906101000a900473ffffffffffffffffffffffffffffffffffffffff1673ffffffffffffffffffffffffffffffffffffffff1673ffffffffffffffffffffffffffffffffffffffff168152602001908152602001600020819055505b611f08612727565b338260000160026101000a81548173ffffffffffffffffffffffffffffffffffffffff021916908373ffffffffffffffffffffffffffffffffffffffff160217905550838260000160166101000a81548160ff021916908360ff160217905550611f8666038d7ea4c6800083600201546127c890919063ffffffff16565b82600101819055508082600201819055508360ff168260000160029054906101000a900473ffffffffffffffffffffffffffffffffffffffff1673ffffffffffffffffffffffffffffffffffffffff167f4fef7442d380f260d9c9a1c036b56b1105a3f481bacd7f75431ff51ec66a2b2d8460000160009054906101000a900460000b8560000160019054906101000a900460000b8660010154604051808460000b60000b81526020018360000b60000b8152602001828152602001935050505060405180910390a3505050505050565b6000600460000160109054906101000a900467ffffffffffffffff16905090565b6000809054906101000a900473ffffffffffffffffffffffffffffffffffffffff1673ffffffffffffffffffffffffffffffffffffffff163373ffffffffffffffffffffffffffffffffffffffff161415156120d357600080fd5b6120de600080610c92565b565b60008060008060006120fa6120f58888611174565b6110d2565b945094509450945094509295509295909350565b60008060046001016121208585611174565b60ff1681548110151561212f57fe5b906000526020600020906004020190503373ffffffffffffffffffffffffffffffffffffffff168160000160029054906101000a900473ffffffffffffffffffffffffffffffffffffffff1673ffffffffffffffffffffffffffffffffffffffff1614151561219d57600080fd5b806002015491505092915050565b6000809054906101000a900473ffffffffffffffffffffffffffffffffffffffff1673ffffffffffffffffffffffffffffffffffffffff163373ffffffffffffffffffffffffffffffffffffffff1614151561220657600080fd5b61220f816127fd565b50565b6060806060806060600080603160ff166040519080825280602002602001820160405280156122505781602001602082028038833980820191505090505b509650603160ff166040519080825280602002602001820160405280156122865781602001602082028038833980820191505090505b509550603160ff166040519080825280602002602001820160405280156122bc5781602001602082028038833980820191505090505b509450603160ff166040519080825280602002602001820160405280156122f25781602001602082028038833980820191505090505b509350603160ff166040519080825280602002602001820160405280156123285781602001602082028038833980820191505090505b509250600091505b603160ff168260ff1610156124b25760046001018260ff1681548110151561235457fe5b906000526020600020906004020190508060000160009054906101000a900460000b878360ff1681518110151561238757fe5b9060200190602002019060000b908160000b815250508060000160019054906101000a900460000b868360ff168151811015156123c057fe5b9060200190602002019060000b908160000b815250508060000160029054906101000a900473ffffffffffffffffffffffffffffffffffffffff16858360ff1681518110151561240c57fe5b9060200190602002019073ffffffffffffffffffffffffffffffffffffffff16908173ffffffffffffffffffffffffffffffffffffffff16815250508060000160169054906101000a900460ff16848360ff1681518110151561246b57fe5b9060200190602002019060ff16908160ff16815250508060010154838360ff1681518110151561249757fe5b90602001906020020181815250508180600101925050612330565b50509091929394565b6000809054906101000a900473ffffffffffffffffffffffffffffffffffffffff1673ffffffffffffffffffffffffffffffffffffffff163373ffffffffffffffffffffffffffffffffffffffff1614151561251657600080fd5b61251e6125ac565b6000600460000160006101000a81548167ffffffffffffffff021916908360070b67ffffffffffffffff1602179055506000600460000160086101000a81548167ffffffffffffffff021916908360070b67ffffffffffffffff16021790555042600460000160106101000a81548167ffffffffffffffff021916908367ffffffffffffffff160217905550565b6000600460000160009054906101000a900460070b60070b1415806125e757506000600460000160089054906101000a900460070b60070b14155b1561272557600660008060159054906101000a900463ffffffff1663ffffffff1663ffffffff1681526020019081526020016000206004908060018154018082558091505090600182039060005260206000209060020201600090919290919091506000820160009054906101000a900460070b8160000160006101000a81548167ffffffffffffffff021916908360070b67ffffffffffffffff1602179055506000820160089054906101000a900460070b8160000160086101000a81548167ffffffffffffffff021916908360070b67ffffffffffffffff1602179055506000820160109054906101000a900467ffffffffffffffff168160000160106101000a81548167ffffffffffffffff021916908367ffffffffffffffff16021790555060018201816001019080546127209291906128f7565b505050505b565b61277b600260003373ffffffffffffffffffffffffffffffffffffffff1673ffffffffffffffffffffffffffffffffffffffff168152602001908152602001600020546003546127e490919063ffffffff16565b6003819055506000600260003373ffffffffffffffffffffffffffffffffffffffff1673ffffffffffffffffffffffffffffffffffffffff16815260200190815260200160002081905550565b600081830190508281101515156127db57fe5b80905092915050565b60008282111515156127f257fe5b818303905092915050565b600073ffffffffffffffffffffffffffffffffffffffff168173ffffffffffffffffffffffffffffffffffffffff161415151561283957600080fd5b8073ffffffffffffffffffffffffffffffffffffffff166000809054906101000a900473ffffffffffffffffffffffffffffffffffffffff1673ffffffffffffffffffffffffffffffffffffffff167f8be0079c531659141344cd1fd0a4f28419497f9722a3daafe3b4186f6b6457e060405160405180910390a3806000806101000a81548173ffffffffffffffffffffffffffffffffffffffff021916908373ffffffffffffffffffffffffffffffffffffffff16021790555050565b828054828255906000526020600020906004028101928215612a495760005260206000209160040282015b82811115612a485782826000820160009054906101000a900460000b8160000160006101000a81548160ff021916908360000b60ff1602179055506000820160019054906101000a900460000b8160000160016101000a81548160ff021916908360000b60ff1602179055506000820160029054906101000a900473ffffffffffffffffffffffffffffffffffffffff168160000160026101000a81548173ffffffffffffffffffffffffffffffffffffffff021916908373ffffffffffffffffffffffffffffffffffffffff1602179055506000820160169054906101000a900460ff168160000160166101000a81548160ff021916908360ff1602179055506001820154816001015560028201548160020155505091600401919060040190612922565b5b509050612a569190612a5a565b5090565b612ae991905b80821115612ae557600080820160006101000a81549060ff02191690556000820160016101000a81549060ff02191690556000820160026101000a81549073ffffffffffffffffffffffffffffffffffffffff02191690556000820160166101000a81549060ff02191690556001820160009055600282016000905550600401612a60565b5090565b905600a165627a7a72305820f953566faac3ca3daf432c8ef20b26e3f18f1eccfb1e4d3ef325aad5f9a8af250029",
  "source": "pragma solidity ^0.4.24;\n\nimport \"openzeppelin-solidity/contracts/math/SafeMath.sol\";\nimport \"openzeppelin-solidity/contracts/lifecycle/Pausable.sol\";\nimport \"./BidLandBasic.sol\";\n\n/**\n* @title Block42 Landpot auction\n* @author Richard Fu (richardf@block42.world)\n* @dev A auction for bidding plots and create ERC721 land on bidding completed.\n*/\n\ncontract LandPotAuction is Pausable {\n  using SafeMath for uint256;\n  \n  // Represents an auction of a land\n  struct Auction {\n    int64 x;\n    int64 y;\n    uint64 endingTime; // Uses uint64 for saving space\n    Plot[] plots;\n  }\n\n  // Represents a plot bidding in an auction\n  struct Plot {\n    int8 x;\n    int8 y;\n    address bidder;\n    uint8 team;\n    uint256 currentBid;\n    uint256 maxBid;\n    mapping(address => uint256) bids; // Keep track of all bids for final rewards\n  }\n\n  event Bid(int8 x, int8 y, address indexed bidder, uint8 indexed team, uint256 currentBid);\n  event OutBid(int8 x, int8 y, address indexed oldBidder, address indexed bidder, uint8 indexed team, uint256 currentBid);\n  event Withdrawn(address indexed payee, uint256 weiAmount);\n\n  uint8 constant PLOT_SIZE = 7; // 7x7 plots\n  uint8 constant PLOT_AREA = 49; // For better performance and less gas. 7x7 plots = 49\n  int8 constant PLOT_HELF_SIZE = 3; // For better performance and less gas. 7 /2 = 3\n\n  // The current world of all selling lands, this is only change after the final free-trade period\n  uint32 public currentWorldId;\n\n  // The final jackpot in ETH\n  uint256 public jackpot;\n\n  // The outbid balance all address, used for people withdraw\n  mapping(address => uint256) public balances;\n  uint256 public totalBalances;\n\n  // Current auction\n  Auction public currentAuction;\n\n  // Past auctions\n  mapping(uint32 => Auction[]) public pastAuctions; // WorldId => Auction array\n  mapping(uint256 => Auction) public landAuction; // LandId (ERC721 token) => Auction\n\n  // Contract of the ERC721 BidLand\n  BidLandBasic internal bidLandContract_;\n\n  constructor(address _bidLandAddress) public {\n    bidLandContract_ = BidLandBasic(_bidLandAddress);\n  }\n\n  /**\n   * @dev Starts a new auction for a new land, contract owner only.\n   */\n  function startAuction(int64 x, int64 y) public onlyOwner {\n    require(currentAuction.endingTime < now);\n    archiveCurrentAuction();\n    currentAuction.x = x;\n    currentAuction.y = y;\n    currentAuction.endingTime = uint64((now - now % 86400) + 1 weeks);\n    bool push = false;\n    if (currentAuction.plots.length == 0)\n      push = true;\n    for (uint8 k = 0; k < PLOT_AREA; k++) {\n      (int8 i, int8 j) = plotIndexToPosition(k);\n      if (push)\n        currentAuction.plots.push(Plot(i, j, address(0), 0, 0, 0)); // Creates new struct and adds it in storage\n      else\n        currentAuction.plots[k] = Plot(i, j, address(0), 0, 0, 0); // Creates new struct and updates it in storage\n    }\n  }\n\n  /**\n   * @dev Starts the free-trade period.\n   */\n  function startFreeTrade() external onlyOwner {\n    startAuction(0, 0); // (0,0) is not for sale so used it as an indicator for free-trade period\n    // TODO\n  }\n\n  function endAuction() external onlyOwner {\n    archiveCurrentAuction();\n    currentAuction.x = 0;\n    currentAuction.y = 0;\n    currentAuction.endingTime = uint64(now);\n  }\n\n  function archiveCurrentAuction() internal {\n    if (currentAuction.x != 0 || currentAuction.y != 0)\n      pastAuctions[currentWorldId].push(currentAuction);\n    // TODO: copy struct\n  }\n\n  /**\n   * @dev Restarts the whole game with new world ID. World ID must be created with World contract first.\n   */\n  function restartGame(uint32 _worldId, int64 x, int64 y) external onlyOwner {\n    require(currentAuction.endingTime < now);\n    currentWorldId = _worldId;\n    startAuction(x, y);\n    // TODO\n  }\n\n  /**\n   * @dev Maps a 2D plot position to a 1D array index. (-3,-3)->(3,3) to 0->49\n   */\n  function plotPositionToIndex(int8 i, int8 j) public pure returns (uint8) {\n    return uint8((i + PLOT_HELF_SIZE) * int8(PLOT_SIZE) + j + PLOT_HELF_SIZE);\n  }\n\n  /**\n   * @dev Converts a a 1D plot array index to 2D position. 0->49 to (-3,-3)->(3,3)\n   */\n  function plotIndexToPosition(uint8 k) public pure returns (int8 i, int8 j) {\n    i = int8(k) / int8(PLOT_SIZE) - PLOT_HELF_SIZE;\n    j = int8(k) % int8(PLOT_SIZE) - PLOT_HELF_SIZE;\n  }\n  \n  /**\n   * @dev Gets info current auction, for testing only.\n   */\n  function getAuction() external view returns (int64, int64, uint64) {\n    return (currentAuction.x, currentAuction.y, currentAuction.endingTime);\n  }\n\n  /**\n   * @dev Gets ending time in current auction.\n   */\n  function getEndingTime() external view returns (uint64) {\n    return currentAuction.endingTime;\n  }\n  \n  /**\n   * @dev Gets a specific plot in current auction.\n   */\n  function getPlot(int8 i, int8 j) external view returns (int8 x, int8 y, address bidder, uint8 team, uint256 currentBid) {\n    return getPlotByIndex(plotPositionToIndex(i, j));\n  }\n\n  function getPlotByIndex(uint8 k) public view returns (int8 x, int8 y, address bidder, uint8 team, uint256 currentBid) {\n    Plot storage plot = currentAuction.plots[k];\n    return(plot.x, plot.y, plot.bidder, plot.team, plot.currentBid);\n  }\n\n  /**\n   * @dev Gets all plots in current auction.\n   */\n  function getPlots() external view returns (int8[] xs, int8[] ys, address[] bidders, uint8[] teams, uint256[] currentBids) {\n    xs = new int8[](PLOT_AREA);\n    ys = new int8[](PLOT_AREA);\n    bidders = new address[](PLOT_AREA);\n    teams = new uint8[](PLOT_AREA);\n    currentBids = new uint256[](PLOT_AREA);\n    for (uint8 k = 0; k < PLOT_AREA; k++) {\n      Plot storage plot = currentAuction.plots[k];\n      xs[k] = plot.x;\n      ys[k] = plot.y;\n      bidders[k] = plot.bidder;\n      teams[k] = plot.team;\n      currentBids[k] = plot.currentBid;\n    }\n  }\n\n  /**\n   * @dev Throws if auctioning land is (0,0), i.e. bidding closed.\n   */\n  modifier canBid() {\n    require(currentAuction.x != 0 || currentAuction.y != 0);\n    _;\n  }\n\n  /**\n   * @dev Bids on a plot by anyone.\n   */\n  function bid(int8 i, int8 j, uint8 team) external payable whenNotPaused canBid {\n    uint8 k = plotPositionToIndex(i, j);\n    Plot storage plot = currentAuction.plots[k];\n    uint256 newBid = balances[msg.sender].add(msg.value);\n    require(newBid >= plot.currentBid.add(1 finney)); // Must larger than current bid\n    if (newBid <= plot.maxBid) { // Failed to outbid current bidding, less than its max bid\n      emit OutBid(plot.x, plot.y, plot.bidder, msg.sender, team, newBid);\n      newBid = newBid.add(1 finney); // Add a finney to the current bid\n      plot.currentBid = newBid; // Increase the current bid\n      emit OutBid(plot.x, plot.y, msg.sender, plot.bidder, plot.team, newBid);\n      revert();\n    }\n    if (plot.bidder != address(0)) { // Add the bid of the old bidder to balance, so he can withdraw later\n      totalBalances = totalBalances.add(plot.maxBid);\n      balances[plot.bidder] = balances[plot.bidder].add(plot.maxBid);\n    }\n    emptyMyBalance(); // No more balance\n    plot.bidder = msg.sender;\n    plot.team = team;\n    plot.currentBid = plot.maxBid.add(1 finney);\n    plot.maxBid = newBid;\n    emit Bid(plot.x, plot.y, plot.bidder, team, plot.currentBid);\n  }\n\n  /**\n   * @dev Gets all contributed bids at all plots of the current auction.\n   */\n  function getMyContributedBids() external view returns (int8[] xs, int8[] ys, uint256[] bids) {\n    uint8 size = PLOT_SIZE * PLOT_SIZE;\n    xs = new int8[](size);\n    ys = new int8[](size);\n    bids = new uint256[](size);\n    for (uint8 k = 0; k < size; k++) {\n      Plot storage p = currentAuction.plots[k];\n      if (p.bids[msg.sender] > 0) {\n        xs[k] = p.x;\n        ys[k] = p.y;\n        bids[k] = p.bids[msg.sender];\n      }\n    }\n  }\n\n  /**\n   * @dev Gets the max bid of sender at specfic plot.\n   */\n  function getMaxBid(int8 i, int8 j) external view returns (uint256) {\n    Plot storage plot = currentAuction.plots[plotPositionToIndex(i, j)];\n    require(plot.bidder == msg.sender); // Only bidder can get the max bid\n    return plot.maxBid;\n  }\n  \n  /**\n   * @dev Gets the outbid balance of an address.\n   */\n  function balanceOf(address who) public view returns (uint256) {\n    return balances[who];\n  }\n\n  /**\n   * @dev Gets the outbid balance of sender.\n   */\n  function balanceOfMe() external view returns (uint256) {\n    return balanceOf(msg.sender);\n  }\n  \n  /**\n   * @dev Withdraws all remaining outbid balance of sender.\n   */\n  function withdraw() external {\n    require(balances[msg.sender] > 0);\n    uint256 weiAmount = balances[msg.sender];\n    emptyMyBalance();\n    msg.sender.transfer(weiAmount);\n    emit Withdrawn(msg.sender, weiAmount);\n  }\n  \n  /**\n   * @dev Empties the balance of sender, internal use only.\n   */\n  function emptyMyBalance() internal {\n    totalBalances = totalBalances.sub(balances[msg.sender]);\n    balances[msg.sender] = 0;\n  }\n  \n  /**\n   * @dev Withdraws the earned ETH while keeping enough for jackpot and outbid balances, owner only.\n   */\n  function ownerWithdraw() external onlyOwner {\n    require(address(this).balance > jackpot.add(totalBalances));\n    msg.sender.transfer(address(this).balance.sub(jackpot).sub(totalBalances));\n  }\n\n}",
  "sourcePath": "/Users/fur/Projects/Block42/landpot-dapp/contracts/LandPotAuction.sol",
  "compiler": {
    "name": "solc",
    "version": "0.4.24+commit.e67f0147.Emscripten.clang"
  },
  "schemaVersion": "2.0.1",
  "updatedAt": "2018-08-06T07:49:34.569Z"
}